:020000040800F2
:10000000F805002045010008CB140008091300087A
:10001000C9140008770200082D190008000000002C
:10002000000000000000000000000000F1140008C3
:100030007902000800000000EF140008F314000823
:100040005F0100085F0100085F0100085F01000810
:100050005F0100085F0100087B0200085F010008E3
:100060005F0100085F0100085F0100085F010008F0
:100070005F0100085F0100085F0100085F010008E0
:100080005F0100085F0100085F0100085F010008D0
:100090005F0100085F0100085F0100085F010008C0
:1000A0005F0100085F0100085F0100085F010008B0
:1000B0005F0100085F0100085F0100085F010008A0
:1000C0005F0100085F0100085F0100085F01000890
:1000D0005F01000815190008211900085F010008D8
:1000E000810200085F0100085F0100085F0100084D
:1000F0005F0100085F0100085F0100085F01000860
:100100005F0100085F0100085F0100085F0100084F
:100110005F0100085F010008811500085F01000809
:100120005F0100085F0100085F0100085F0100082F
:10013000DFF80CD000F07EF8004800475535000885
:10014000F80500200648804706480047FEE7FEE71E
:10015000FEE7FEE7FEE7FEE7FEE7FEE7FEE7FEE777
:100160003915000831010008202A04DB203A21FA61
:1001700002F00021704721FA02F3D040C2F12002C0
:10018000914008431946704740EA01039B0703D09A
:1001900009E008C9121F08C0042AFAD203E011F8C6
:1001A000013B00F8013B521EF9D27047D2B201E088
:1001B00000F8012B491EFBD270470022F6E710B56C
:1001C00013460A4604461946FFF7F0FF204610BDC5
:1001D0002DE9F05F0546002092469B46884606467C
:1001E000814640241BE02846414647462246FFF709
:1001F000BBFF53465A46C01A914110D311461846C8
:10020000224600F029F82D1A67EB01084F462246D6
:100210000120002100F020F817EB00094E41201EBC
:10022000A4F10104DFDC484631462A464346BDE8D6
:10023000F09F0000064C074D06E0E06840F0010327
:1002400094E8070098471034AC42F6D3FFF774FFE8
:100250004838000868380008202A04DB203A00FAF1
:1002600002F1002070479140C2F1200320FA03F30D
:10027000194390407047FEE77047012000F0EEB848
:100280004FF4005000F0EAB8704700002DE9F05F2D
:1002900090F821100024022903D004218163012455
:1002A00085E001680A6822F00E020A6001680A68A7
:1002B00022F001020A603F4E3E4FB215DFF8F4C053
:1002C000DFF8F090DFF8ECA0DFF8E8B0DFF8E4E06A
:1002D0000168783F13011502ACF1640CA9F15009D3
:1002E000AAF13C0AABF1280BAEF1140E4FF48018C2
:1002F000B14227D9B9420ED0614512D049451DD02F
:10030000514518D0594518D0714501D1424615E0E4
:10031000294EB14201D1012210E0274E1436B142DC
:1003200001D110220AE0244E2836B14206D0224ADA
:100330003C32914201D11A4600E02A461E49091F6B
:100340000A602BE0B94213D0614517D0494522D04D
:1003500051451DD059451DD0714501D142461AE085
:10036000B14202D14FF0807215E0134EB14201D17B
:10037000012210E0104E1436B14201D110220AE0E1
:100380000D4E2836B14206D00B4A3C32914201D183
:100390001A4600E02A46074980394A60012180F860
:1003A0002110002180F82010416B01B188472046C0
:1003B000BDE8F09F800002400804024070B504468A
:1003C00000F05AF90546601C02D004480078044445
:1003D00000F052F9401BA042FAD370BD1C0000206F
:1003E00070B50446014614A001F0A2FA4FF400557E
:1003F000AC420CD10220FFF7E1FF2946124800F081
:100400002DF9002817D1BDE8704001F0F9BC012C8E
:1004100004D0BDE870400DA001F08ABA0220FFF7B9
:10042000CDFF01210C4800F019F9002803D1BDE8E7
:10043000704001F00DBD70BD4750494F5F50696E6F
:100440003D253038780D0A000010014045525220F9
:10045000434F4D2D2D00000000180140044910B5F8
:100460000A68024202D00860FFF7BAFF10BD000020
:10047000140401402DE9F84FDFF8B8A100220AF179
:10048000040B144601274FF00F090BF1040E00BFB7
:100490000B6807FA04F52B40AB4274D1DFF898C122
:1004A0004E68A6EB0C0866452BD00DDC032E34D02D
:1004B00005DC36B3012E19D0022E2FD11BE0112EF0
:1004C00016D0122E2AD119E0B8F5881F19D006DCF3
:1004D000B8F5803F15D0B8F5801F1FD111E0B8F5F1
:1004E000001F0ED0B8F5041F18D10AE0CA6815E045
:1004F000CA68121D12E0CA6808320FE0CA680C32DE
:100500000CE08A682AB1012A4FF0080203D0456145
:1005100004E0042202E0056100E00022FF2B01D884
:10052000064601E000F104064FEA840501D9A5F171
:100530002005D6F800C009FA05F82CEA080C02FAE2
:1005400005F54CEA050CC6F800C04D68ED006AD50B
:100550003A4DAE6946F00106AE61AD6924F003067E
:1005600005F001050095364D06EB050CDCF808504A
:10057000A6074FEA167809FA08F6B543314EB0429D
:1005800002D100261AE04EE02F4EB04201D10126E2
:1005900014E02E4EB04201D102260FE02C4EB042A4
:1005A00001D103260AE02B4EB04201D1042605E01A
:1005B000294EB04201D1052600E0062606FA08F6CB
:1005C0002E43CCF808604D68DAF80060ED0355461C
:1005D00001D51E4300E09E432E604D68AD0305D556
:1005E000DBF800601E43CBF8006004E0DBF800504D
:1005F0009D43CBF800504D68DEF80060ED02754673
:1006000001D51E4300E09E432E604D68AD0205D526
:10061000084D0C352E681E432E6004E0054E0C3646
:1006200035689D433560641C102CFFF431AFBDE884
:10063000F88F00000004014000001110001002407B
:100640000000014000080140000C01400010014082
:100650000014014000180140001C0140806808405F
:1006600000D001207047C2684A40C26070470AB19A
:10067000016170470904FBE701488068704700008A
:100680001C00002002488168027811448160704794
:100690001C000020074810B5016841F010010160FE
:1006A000032000F073F8002000F006F800F024F8B2
:1006B000002010BD0020024070B50D4D04464FF4DF
:1006C0007A712878B1FBF0F00A490968B1FBF0F0C3
:1006D00000F010FB48B9102C07D200222146501E12
:1006E00000F034F800206C6070BD012070BD000087
:1006F0001C000020280000200C4808B5816941F04A
:1007000001018161816901F001010091C16941F03C
:100710008051C161C06900F0805000900448416878
:1007200021F0E06141F00071416008BD001002401D
:100730000000014000F01F020121914040098000AB
:1007400000F1E020C0F8001170470000F0B40E4B3B
:100750001B680C46C3F30223C3F10705042D00D91F
:100760000425191D072901D2002300E0DB1E012604
:1007700006FA05F1491E214099409E40761E16401A
:100780003143F0BC00F0A3BE0CED00E0064900F0E0
:10079000070208684FF6FF03184040EA0220034AA8
:1007A00010430860704700000CED00E00000FA05FF
:1007B000704700002DE9F047DFF8548105460E46EA
:1007C000D8F8000000F00700B0420CD2D8F80010B2
:1007D00021F007013143C8F80010D8F8000000F0FC
:1007E0000700B0426FD128684A4C810712D54007F4
:1007F00003D5606840F4E06060602878000703D5A6
:10080000606840F4605060606068A96820F0F000A3
:10081000084360602878C00744D06868012816D073
:100820002168022816D0890700294CDA616821F076
:10083000030101436160FFF71FFF6968074641F24A
:10084000883001290ED00229814618D026E021687F
:100850008903E9E78901E7E7FFF70EFFC11B494577
:1008600001D918E081466068C0F381000128F3D106
:1008700018E000BFFFF700FFC11B49450BD86068B7
:10088000C0F381000228F5D10CE000BFFFF7F4FEB1
:10089000C11B494502D90320BDE8F087606810F00C
:1008A0000C0FF3D1D8F80010404601F00701B14217
:1008B0000BD9016821F0070131430160006800F0A5
:1008C0000700B04201D00120E6E72878400705D5AF
:1008D0006068E96820F4E0600843606028780007F9
:1008E00006D56068296920F4605040EAC100606064
:1008F00000F03CF86168084AC1F30311515CC8403C
:10090000064908600020FFF7D7FE0020C4E700007A
:10091000002002400010024030380008280000206B
:1009200001490120C864704700004242044805495B
:1009300000684968044AC1F30221515CC84070470D
:1009400028000020001002404038000804480549F3
:1009500000684968044AC1F3C221515CC84070472D
:1009600028000020001002404038000812A185B085
:100970000FC98DE80F0014A0144A00680490516854
:10098000134801F00C03042B10D0082B0ED1C1F337
:100990008343C9031DF803000AD5516804AAC1F3B3
:1009A0004041515C0A4A5043B0FBF1F005B070473A
:1009B00008494843FAE7000002030405060708094E
:1009C0000A0B0C0D0E0F1010010200000010024067
:1009D00000127A0000093D0010B5044CA068000622
:1009E00003D5FFF7E5FE8020A07210BD0010024085
:1009F0002DE9F84F04460078B94DC00748D0686823
:100A0000C0F38100012807D06868C0F38100022884
:100A100009D16868C00306D52868800338D56068A6
:100A200000286FD034E06068B0F5803F0BD010B183
:100A3000B0F5A02F11D0286820F4803028602868F5
:100A400020F4802002E0286840F48030286060684C
:100A500088B1FFF711FE064609E0286840F48020BF
:100A60002860F0E7FFF708FE801B642875D8286827
:100A70008003F7D50CE0FFF7FFFD064605E000BF59
:100A8000FFF7FAFD801B6428F0D828688003F7D4AC
:100A90002078944E80074FF001094FF000083BD5B5
:100AA000686810F00C0F07D06868C0F38100022856
:100AB00009D16868C00306D42868800714D5206966
:100AC00001281FD110E02069B0B1C6F80090FFF7EF
:100AD000D3FD074605E000BFFFF7CEFDC01B02288F
:100AE000C4D828688007F7D52868616920F0F80025
:100AF00040EAC10028600FE0C6F80080FFF7BCFDA7
:100B0000074606E0E9E000BFFFF7B6FDC01B02287C
:100B100023D828688007F7D4207800072CD572489E
:100B2000A169D9B1C0F80090FFF7A6FD074604E01F
:100B3000FFF7A2FDC01B02280FD8686A8007F7D50F
:100B40006A484FF4FA510068B0FBF1F0009000BF22
:100B50000098411E0091FAD20EE080E0C0F80080BB
:100B6000FFF78AFD074604E0FFF786FDC01B022859
:100B700075D8686A8007F7D42078400760D5E8699F
:100B80000027C00008D4E86940F08050E861E869B7
:100B9000012700F08050009055480168C90513D422
:100BA0000168834641F480710160FFF765FD82466C
:100BB00006E000BFFFF760FDA0EB0A0064284ED8F6
:100BC000DBF80000C005F5D5E06801280AD008B1BF
:100BD000052813D0286A20F001002862286A20F036
:100BE000040002E0286A40F001002862E06841F257
:100BF000883B98B1FFF740FD82460BE0286A40F041
:100C000004002862EEE700BFFFF736FDA0EB0A0103
:100C100059455AD8286A8007F6D50CE0FFF72CFD15
:100C2000824605E0FFF728FDA0EB0A0159454CD8A4
:100C3000286A8007F6D41FB1E86920F08050E86187
:100C4000E06988B36968C1F38101022945D00228AF
:100C5000C6F8608004D0FFF70FFD044638E034E0AA
:100C6000FFF70AFD074604E0FFF706FDC01B022858
:100C70002BD828688001F7D4206AB0F5803F05D1D1
:100C80006868A16820F4003008436860D4E908016E
:100C90000843696821F4741108436860C6F86090DD
:100CA000FFF7EAFC044606E015E000BFFFF7E4FCAE
:100CB000001B022809D828688001F7D50BE000BF87
:100CC000FFF7DAFC001B022802D90320BDE8F88FE9
:100CD00028688001F4D40020F8E70120F6E700003E
:100CE00000100240000042428004424228000020DE
:100CF0000070004010B5401EB0F1807F01D301208C
:100D000010BD4FF0E02460610F21601700F0DFFBA1
:100D10000020A06107202061002010BD70477047AF
:100D200030B590F83C20012A20D0012280F83C20E8
:100D3000022380F83D3003685C6824F070045C6036
:100D400003685C680D682C435C6003689C6824F051
:100D500080049C6003689C6849680C439C6080F830
:100D60003D20002180F83C10084630BD022030BDF7
:100D700010B5040003D094F83D0010B107E0012045
:100D800010BD002084F83C00204600F00DF8022041
:100D900084F83D00211D206800F0F8FB012084F854
:100DA0003D00002010BD000008B500680B498842D6
:100DB00012D10B48C16941F01001C161C069012223
:100DC00000F01000009011463620FFF7BFFCBDE890
:100DD00008403620FFF7AEBC08BD00000010004000
:100DE000001002400168CA6842F00102CA6000684F
:100DF000016841F00101016000207047704770B543
:100E00000446006801694FF00005C943890715D4FD
:100E1000C168C943890711D4E91E01610120207707
:100E2000206880698007204602D0FFF7E7FF04E0D2
:100E300000F098F8204600F096F8257720680169C0
:100E4000C943490717D4C168C943490713D46FF090
:100E500004010161022020772068806910F4407F3E
:100E6000204602D0FFF7CAFF04E000F07BF82046DE
:100E700000F079F8257720680169C943090716D47D
:100E8000C168C943090712D46FF008010161042049
:100E900020772068C0698007204602D0FFF7AEFFA8
:100EA00004E000F05FF8204600F05DF82577206848
:100EB0000169C943C90617D4C168C943C90613D417
:100EC0006FF010010161082020772068C06910F4DC
:100ED000407F204602D0FFF791FF04E000F042F887
:100EE000204600F040F8257720680169C943C9070A
:100EF00008D1C168C943C90704D1891E01612046D0
:100F000000F032F820680169C943090609D4C168B4
:100F1000C943090605D46FF0800101612046FFF73F
:100F2000FDFE20680169C943490609D4C168C94367
:100F3000490605D46FF040010161204600F01CF81D
:100F400020680169C94389060BD4C168C943890671
:100F500007D46FF0200101612046BDE87040FFF723
:100F6000DEBE70BD704770470249884201D102F071
:100F70000BB87047340100207047704770B50268A5
:100F800004461068D168536910F00F0F50D003F079
:100F9000010501F4907635435DD0C20705D0CA053E
:100FA00003D5E26B42F00102E263420705D5DA079E
:100FB00003D0E26B42F00202E263820705D5DA0752
:100FC00003D0E26B42F00402E263020705D5DA07C0
:100FD00003D0E26B42F00802E263E26B002A33D0F6
:100FE000800604D5880602D5204600F02BFB206839
:100FF0004069E16BC0F38010090700D428B3204694
:1010000000F012FB2068416949061AD5416921F0B8
:1010100040014161606BA0B11B494163606BFFF708
:1010200035F9002810D0606B416BBDE8704008476F
:10103000830610D58B060ED52046BDE8704000F023
:1010400001BB2046FFF799FF70BD2046FFF795FFD3
:101050000020E06370BD030606D50B0604D52046CC
:10106000BDE8704000F0F2BB4006F3D54806F1D56C
:10107000D168204621F04001D160202184F8391048
:1010800000F041F970BD00001916000870B50400A9
:1010900004D094F83900002510B106E0012070BD9D
:1010A00084F83850204600F023F8242084F83900D2
:1010B0002068C16821F40051C160204600F00EFB99
:1010C0002068016921F4904101612068416921F0A3
:1010D0002A0141612068C16841F40051C160E563A3
:1010E000202084F8390084F83A00002070BD000008
:1010F00070B586B0002400940194029403942E4E9F
:1011000003682E49022003222D4DB34226D18B695C
:1011100043F480438B618B6903F4804304938B69B0
:1011200043F004038B618969039201F00401049187
:101130000102CDE9001069462846FFF79BF9281502
:10114000CDE90004694628460294FFF793F900228E
:1011500011462520FFF7FAFA252028E0194EB34260
:1011600027D1CB6943F40033CB61CB6903F400335F
:1011700004938B6943F004038B618969039201F046
:10118000040104910421CDE9001069462846FFF7C7
:1011900071F90820CDE90004694628460294FFF75A
:1011A00069F9002211462620FFF7D0FA2620FFF722
:1011B000C1FA06B070BD00000038014000100240C6
:1011C000000801400044004090F83A30202B22D122
:1011D000F9B1F2B190F83830012B1CD081628285D0
:1011E000C2850021C163222280F83A2080F838109D
:1011F0000168CA6842F48072CA6001684A6942F0B4
:1012000001024A610068C16841F02001C16000200C
:1012100070470120704702207047000010B5006839
:10122000074988420AD10121064801F0ADFDBDE819
:101230001040012203490448FFF7C6BF10BD00005B
:101240000044004018000020B40100202DE9F843BC
:10125000044690F839001F4616460D46202850D106
:10126000A5B19EB194F8380001284AD0012084F835
:1012700038004FF00008C4F83C80212084F8390081
:10128000FFF7FAF9A6848146E68426E00120BDE84E
:10129000F883E08C401EE084A0684B46B0F5805F88
:1012A0004FF000024FF080012046009703D000F07D
:1012B000FEFAE8B90DE000F0FAFAC8B9288821680A
:1012C000C0F308004860206908B16D1C05E0AD1C42
:1012D00003E0216815F8010B4860E08C0028D8D1A4
:1012E0004B46002240212046009700F0E0FA08B16A
:1012F0000320CCE7202084F8390084F838800020CF
:10130000C5E70220C3E77047FEE700002DE9F0477C
:1013100086B00025394800950195029503958169AD
:1013200041F010018161816901F01001049181692E
:1013300041F004018161816901F004010491816936
:1013400041F020018161816901F0200104918169EE
:1013500041F480718161816901F480710491816936
:1013600041F0400181618069DFF8949000F0400015
:101370004FF400560490002231464846FFF777F9B3
:10138000DFF880A04FF48048002241465046FFF726
:101390006EF91D4F01240096CDE9017469461B4882
:1013A000FFF768F8CDE900640226CDE902566946E8
:1013B0004846FFF75FF801AACDF8008082E8700088
:1013C00069465046FFF756F8CDE900476946104890
:1013D0000294FFF74FF8012211460620FFF7B6F9F5
:1013E0000620FFF7A7F9002201212820FFF7AEF918
:1013F0002820FFF79FF906B0BDE8F08700100240F3
:1014000000140140002001400000211000100140A4
:10141000001801401CB500240E4800940C490194AA
:10142000016041F61F41C0E9011409218461C160D6
:10143000FFF79EFC08B1FEF727FF009469460548B8
:101440000194FFF76DFC002801D0FEF71DFF1CBDC5
:1014500000100040340100200C4810B50A4901601A
:101460004FF4E1314160002181600C22C160C0E98C
:1014700004128161C161FFF709FE002803D0BDE8B5
:101480001040FEF701BF10BD00380140740100207C
:101490000C4810B50A4901604FF416514160002113
:1014A00081600C22C160C0E904128161C161FFF753
:1014B000EDFD002803D0BDE81040FEF7E5BE10BDED
:1014C00000440040B4010020FEE7FFF785BA090799
:1014D000090E002806DA00F00F0000F1E02080F885
:1014E000141D704700F1E02080F800147047704729
:1014F0007047FFF7C7B830B58FB028216846FEF7B0
:101500005CFE14210AA8FEF758FE01252804CDE947
:101510000050002407946846FFF76AFA0F200A90EB
:10152000CDE90B540D9400210AA80E94FFF742F95F
:10153000FFF7F6F90FB030BD0D48016841F0010129
:10154000016041680B4A1140416001680A4A11403C
:101550000160016821F480210160416821F4FE01ED
:1015600041604FF41F0181600449C0030860704767
:10157000001002400000FFF8FFFFF6FE08ED00E05B
:101580000148FFF73CBC000034010020F0B50268C0
:101590001C4B1D4D1D4E1E4F1E4C4FF0804C984253
:1015A00009D0A04207D0604505D0A84203D0B04280
:1015B00001D0B84204D122F0700E4A6842EA0E020D
:1015C000984209D0A04207D0604505D0A84203D078
:1015D000B04201D0B84203D122F44075CA682A4310
:1015E00022F080054A692A4302608A68C2620A685A
:1015F0008262984201D0A04201D1096901630121B0
:101600004161F0BD002C0140000400400008004092
:10161000000C00400034014010B5406A0021C18533
:10162000C184FFF7AAFC10BD0168CA6822F4907259
:10163000CA6001684A6922F001024A61202180F8EB
:101640003A10704710B590F83A10222901D00220C4
:1016500010BD8168B1F5805F11D001690029016872
:101660001FD0496801F07F03816A4A1C82620B70B7
:10167000C18D491E0904090CC18518D02BE00269EF
:10168000816A002A0268526805D0D2B20A80816A53
:10169000491C8162ECE7C2F308020A80816A891C56
:1016A000F7E74A68816A4B1C83620A70E0E70168C9
:1016B000CA6822F02002CA600168CA6822F48072F7
:1016C000CA6001684A6922F001024A61202180F85B
:1016D0003A10FFF7A3FD002010BD00002DE9F041F6
:1016E000044600680169E26821F440511143016138
:1016F0002169A0680843616908432168CA6841F20A
:101700000C639A430243CA6020684169A26921F4CC
:101710004071114341614C4920686425322688425A
:101720003CD1FFF713F900EBC00101EB0010616839
:101730008900B0FBF1F7FFF709F900EBC00101EBFD
:1017400000106168B0468900B0FBF1F0B0FBF5F025
:101750006FF01801484307EB800106EB0110B0FB66
:10176000F5F000F0F006FFF7F1F800EBC00101EB37
:10177000001061688900B0FBF1F0B0FBF5F006EBFA
:101780000016FFF7E3F800EBC00101EB0010616801
:101790008900B0FBF1F7FFF7D9F83BE0FFF7C6F897
:1017A00000EBC00101EB001061688900B0FBF1F7AC
:1017B000FFF7BCF800EBC00101EB00106168B04618
:1017C0008900B0FBF1F0B0FBF5F06FF01801484371
:1017D00007EB800106EB0110B0FBF5F000F0F0061E
:1017E000FFF7A4F800EBC00101EB0010616889006D
:1017F000B0FBF1F0B0FBF5F006EB0016FFF796F842
:1018000000EBC00101EB001061688900B0FBF1F74B
:10181000FFF78CF800EBC00101EB00106168890054
:10182000B0FBF1F0B0FBF5F06FF01801484307EBA7
:10183000800108EB0110B0FBF5F0216800F00F000B
:1018400030448860BDE8F0810038014090F83910DC
:10185000212901D0022070478168B1F5805F016ABB
:101860000BD04A1C0262026809785160C18C491E83
:101870000904090CC1840ED017E009880268C1F37D
:101880000801516001690029016A02D0491C016206
:10189000ECE7891CFBE70168CA6822F08002CA6095
:1018A0000068C16841F04001C160002070472DE927
:1018B000F041984617460E460446069D1DE0681CFA
:1018C0001BD02DB1FEF7D8FEA0EB0800A84214D91A
:1018D0002068C16821F4D071C1602068416921F09D
:1018E00001014161202084F8390084F83A00002089
:1018F00084F838000320BDE8F0812068006836EAEB
:10190000000004D00020B842D9D00020F3E7012025
:10191000F9E700000148FFF731BB00007401002027
:101920000148FFF72BBB0000B4010020FEE70000D8
:101930000FB4054B10B503A9044A029800F018F83B
:1019400010BC5DF814FB0000E91D00082C0000200D
:1019500002E008C8121F08C1002AFAD17047704778
:10196000002001E001C1121F002AFBD170470000D6
:101970002DE9FF4F8DB00F460546002606E02528CD
:101980000BD0DDE90F1290476D1C761C28780028DB
:10199000F5D111B03046BDE8F08F0024A246A14633
:1019A0000122EC4900E0044315F8013F203B02FA14
:1019B00003F00842F7D128782A2810D06FF02F02C0
:1019C0002878A0F13001092914D80AEB8A0102EB2A
:1019D000410144F0020400EB010A6D1CF0E701CF65
:1019E0005FEA000A03D544F40054CAF1000A44F047
:1019F00002046D1C28782E2817D115F8010F44F029
:101A000004042A280ED06FF02F022878A0F13001AC
:101A100009290AD809EB890102EB410100EB010910
:101A20006D1CF2E757F8049B6D1C28786C280FD0CA
:101A300006DC4C2817D068280DD06A2814D104E0A1
:101A4000742810D07A280FD10DE044F400140AE075
:101A500044F4801401E044F440146978814202D1D6
:101A600004F580146D1C6D1C2A786E2A1FD00CDCC6
:101A7000632A31D004DC002A8BD0582A11D1A3E08C
:101A8000642A68D0692A0CD165E0732A2ED004DC60
:101A90006F2A73D0702A04D19BE0752A6FD0782A00
:101AA0006ED01046DDE90F129047761C50E1C4F36A
:101AB0000250022806D0032809D0042801CF09D0FB
:101AC000066045E101CFF117C0E9006140E101CFB7
:101AD00006803DE106703BE117F8040B8DF800002D
:101AE00000208DF80100EB46012003E057F804BB0D
:101AF0004FF0FF3061074FF0000102D40DE008F114
:101B00000101884649450FDA8045F8DB1BF80810CB
:101B10000029F4D108E008F1010188468142FADB8E
:101B20001BF808100029F6D1DDE90F23AAEB080005
:101B30008146214600F036F9304400EB080604E007
:101B4000DDE90F121BF8010B9047B8F10108F7D23D
:101B500021464846F7E00A21C4F302534FF0000B38
:101B60000891022B04D001CFC117032B09D00AE042
:101B7000FF1D27F00707F7E8020108E032E01FE049
:101B800020E000B2C117042B01D140B2C117031EDF
:101B900071F1000307DA4FF0000CD0EB0C006CEB96
:101BA00001012D2302E0230504D52B238DF82430D9
:101BB000012303E0E30701D02023F7E7984658E02C
:101BC0000A2110E010210EE010204FF0000B0890C9
:101BD0000CE010214FF0000B44F004044FF0080912
:101BE000089103E008214FF0000B0891C4F3025361
:101BF000022B04D001CF0021032B06D006E0FF1DED
:101C000027F00707F7E8020103E080B2042B00D1B8
:101C1000C0B24FF0000823072BD5702A07D0DDF89B
:101C200020C08CF0100C5CEA0B0C05D00EE04023B9
:101C30008DF82430012308E050EA010306D0302358
:101C40008DF824308DF8252002239846DDF820C039
:101C50008CF0080C5CEA0B0C0BD150EA010301D1AB
:101C6000630706D530238DF824304FF00108A9F121
:101C70000109582A04D038A20B9208AA0A920BE054
:101C80003AA2F9E75B46089AFEF7A2FA0B9B9B5C27
:101C90000A9A521E0A92137050EA0102F2D10A986F
:101CA000ADEB000000F1200B600702D524F4803476
:101CB00001E04FF00109D94502DDA9EB0B0000E07E
:101CC000002000EB0B0141440890AAEB010AE0035D
:101CD00006D4DDE90F232146504600F063F80644A0
:101CE0004FF0000908E009A911F80900DDE90F1219
:101CF000904709F10109761CC145F4DBE0030CD5DE
:101D0000DDE90F232146504600F04CF8064404E07C
:101D1000DDE90F1230209047761C0899481E089084
:101D20000029F5DC08E00A980A990078491C0A9114
:101D3000DDE90F129047761CBBF10001ABF1010BFE
:101D4000F1DC21465046DDE90F2300F019F8064486
:101D50006D1C1BE60928010030313233343536372B
:101D600038396162636465660000000030313233E7
:101D70003435363738394142434445460000000087
:101D80002DE9F041044600251E461746880404D478
:101D900005E039462020B0476D1C641EF9D5284661
:101DA000BDE8F0812DE9F041044600251E4690462D
:101DB000C80301D5302700E02027880404D505E0BA
:101DC00041463846B0476D1C641EF9D52846BDE82B
:101DD000F081014600200A0A62F3070061F30F2038
:101DE000704700BA7047000013B54FF6FF73012229
:101DF00069460248FFF72AFA00981CBD74010020CA
:101E000010B5084908A0FFF793FD4FF4804108483A
:101E1000FEF729FC07A0FFF78BFDBDE8104001206D
:101E200001F00CBB1D3800080D0A25730D0A0000D7
:101E3000002001404B455932205052455353202C2D
:101E4000536F6674204150206D6F64650A00000076
:101E500010B5084908A0FFF76BFD4FF40051084882
:101E6000FEF701FC07A0FFF763FDBDE8104002206C
:101E700001F0E4BA273800080D0A25730D0A0000A6
:101E8000001401404B455932205052455353204CC9
:101E90004F4E47202C4169724C696E6B206D6F6408
:101EA000650A000048B1420707D000F00700C0F102
:101EB0000800884203D3002070470829FBD901207D
:101EC000704730B5002248B9501E30BD8B1A03440C
:101ED000845C13F8015D85541C70521CB2EB510FE9
:101EE000F4D3002030BD000038B51446C0B1B9B1FC
:101EF000B4B10278D20711D00D784A1C1123AB542B
:101F00000A78431C521C0A7001210A4600910021E4
:101F1000084600F0F7FF00B101202070002038BD16
:101F200002A0FFF705FD4FF0FF3038BD67697A4426
:101F3000617461506F696E74324576656E742045C8
:101F400072726F72202C20496C6C6567616C205036
:101F50006172616D0A00000038B50C4678B174B149
:101F6000002121700078009023460122084600F0ED
:101F7000A1FF01212046FFF7A4FF002038BD03A0E8
:101F8000FFF7D6FC4FF0FF3038BD000067697A4498
:101F9000617461506F696E7473325265706F7274E0
:101FA00044617461204572726F72202C20496C6C00
:101FB0006567616C20506172616D0A002DE9F04720
:101FC000044600F083F8234F234E0546A7F1250869
:101FD000A7F10209A4B100F079F83978207881429C
:101FE0001AD01EA0FFF7A4FC00F070F8B06020A08B
:101FF000FFF79EFC49462046FFF7AEFF20B108E000
:1020000021A0FFF795FC07E001224946042000F0DB
:10201000EFFE217888F825102548B5FBF0F100FB8C
:102020001150002813D1F068A84210D021A0FFF76A
:102030007FFC49462046FFF78FFF20B90122494621
:10204000042000F0D5FE217888F82510F560BDE861
:10205000F0870000D50000200800002076616C7534
:1020600065504F574552204368616E6765640A00AA
:102070006368616E6765642C207265706F7274208E
:10208000646174610A00000067697A436865636B84
:102090005265706F7274204572726F72202C2049E5
:1020A0006C6C6567616C20506172616D0A000000A4
:1020B000C0270900496E666F3A20363030532072CF
:1020C00065706F727420646174610A000148406831
:1020D000704700000000002010B5134C94F83A003F
:1020E000012819D194F83900022816D2FFF7EEFF23
:1020F000D4F85310401AC8280ED9FFF7E7FF14F898
:10210000393F0146D4F81A2008A0FFF711FC00F06F
:102110009BFD2078401C207010BD03481E21BDE8A7
:1021200010403930FEF749B8300000205761726E18
:10213000696E673A67697A50726F746F636F6C5239
:102140006573656E64446174612025642025642094
:1021500025640A003EB5F8B101680091406801901D
:102160009DF80400401C8DF804000520FFF731FEA7
:10217000ADF802000921684600F0A0FD8DF80800C6
:102180000921684601F0F4FA040003D5014605A0D0
:10219000FFF7CEFB20463EBD09A0FFF7C9FB4FF07D
:1021A000FF303EBD4552523A2075617274207772FD
:1021B000697465206572726F72202564200A0000C0
:1021C0004552523A2067697A50726F746F636F6C30
:1021D000436F6D6D6F6E41636B2064617461206944
:1021E0007320656D707479200A0000003EB50D46BD
:1021F000040021D0684600F0B5F912208DF80400E3
:1022000060798DF805000620FFF7E3FDADF80200C8
:102210008DF808500A21684600F050FD8DF809003D
:102220000A21684601F0A4FA040003D5014605A07E
:10223000FFF77EFB20463EBD09A0FFF779FB4FF07C
:10224000FF303EBD4552523A20756172742077725C
:10225000697465206572726F72202564200A00001F
:1022600067697A50726F746F636F6C4572726F72C8
:10227000436D64204572726F72202C20496C6C652E
:1022800067616C20506172616D0A000010B59EB0EC
:1022900004004FD0684600F065F902208DF8040074
:1022A00060798DF8050026A02022D0E90010CDE944
:1022B000021026A1D1E90001CDE9040126A0D0E950
:1022C0000010CDE9081027A1D1E90001CDE90601F0
:1022D00027A10AA8FDF758FF20222EA10DF15200D8
:1022E000FDF752FF0020CDF84A00CDF84E009DF8D2
:1022F000510040F002008DF851000020FFF769FD09
:10230000ADF848006F20FFF764FDADF802007321BF
:10231000684600F0D3FC8DF872007321684601F026
:1023200027FA040003D5014623A0FFF701FB20464E
:102330001EB010BD27A0FFF7FBFA4FF0FF30F7E704
:102340003030303030303034000000003030303049
:102350003030303200000000303330333030303035
:1023600000000000303330313031303000000000E8
:10237000623432656462666432313662343939649B
:10238000626565306266633934373566313432638D
:10239000000000003130343137396561653936333A
:1023A00034366633623634326131346362616132AD
:1023B00037623238000000004552523A207561728F
:1023C00074207772697465206572726F722025645B
:1023D000200A000067697A50726F746F636F6C47F0
:1023E0006574446576696365496E666F20457272EF
:1023F0006F72202C20496C6C6567616C2050617293
:10240000616D0A002DE9F84F4FF0000690460C462A
:102410005FEA000A35464FF0FF390ED06CB1B8F1D3
:10242000000F0AD0504601F0E6F810F0FF0707D081
:102430004FF0FF0BDFF8F89055E03EA0FFF778FA79
:102440004846BDE8F88F01226946504601F009F977
:10245000F0B399F80100FF2805D19DF80000FF288E
:1024600007D0552833D099F80010484601291BD0D1
:102470002DE099F80010484661B18188042926D9D9
:10248000A94224D084F800B084F801B00221A9F850
:1024900004101CE084F800B084F801B002218180AF
:1024A000012189F8001012E080889DF80020225454
:1024B000401C80B2A9F80400042808D96088FFF7FE
:1024C00088FC001D85B2B9F80400A8420DD000E0D8
:1024D00008E09DF8001089F8011099F80210491CD5
:1024E00089F80210761CBE42ADDBB9F804104E46E6
:1024F00004291AD9A94218D1204600F0DFFBB2887E
:10250000A11811F8011C81420CD121462A46084627
:10251000FDF73AFEA8F8005000203070B080B0708F
:1025200070708EE76FF001008BE7012089E70000F3
:102530000800002067697A50726F746F636F6C4790
:1025400065744F6E655061636B6574204572726F80
:1025500072202C20496C6C6567616C20506172613F
:102560006D0A000010B538B1002101604160FF2103
:1025700001704170002010BD02A0FFF7D9F94FF0A3
:10258000FF3010BD4552523A2067697A50726F741D
:102590006F636F6C48656164496E6974206865613A
:1025A0006420697320656D707479200A0000000052
:1025B0002DE9F0438BB0984617465FEA01090646BD
:1025C0004FF0000525D0B8F1010F2AD0781D84B254
:1025D00023462A46394628A0FFF7AAF9FF208DF89E
:1025E00000008DF80100200A8DF802008DF80340EC
:1025F0003079401C8DF8040070798DF805000020BA
:102600008DF8060008208DF80780B8F1010F0CD076
:1026100016E023A0FFF78CF94FF0FF300BB0BDE8B8
:10262000F083357AE819801DD1E78DF808502A46E5
:1026300006F109010DF10900FDF7A6FD05F10900FC
:102640006D4627B128443A464946FDF79DFD211DB8
:10265000684600F033FB2919C870211D684601F057
:1026600087F8010005D514A0FFF762F96FF00100AB
:10267000D4E70020D2E700006C656E203D20256481
:10268000202C20734469644C656E203D2025642015
:102690002C646174615F6C656E203D2025640A00C6
:1026A0005B4552525D202064617461204973204E65
:1026B000756C6C200A000000756172742077726975
:1026C0007465206572726F72202564200A00000014
:1026D0002DE9F05F0C000A9D94F800801F46164615
:1026E0004FF0FF3B03D017B10DB120B14DE028A052
:1026F000FFF71EF924E0324813218146FDF75DFD06
:102700004046DFF8BC804FF0000AA8F157080128C6
:1027100006D04FF0030902280CD0052835D11CE063
:10272000274A49464D32601CFFF7DEFB012188F83D
:10273000001028E022494C31881CFFF70DFC10B135
:102740005846BDE8F09F1E48293090F82300787065
:1027500087F800900220286017E01948721E611C5B
:102760004038FDF711FD4046761EC8F82D6014492B
:1027700010F8573F491C10225A5410F81F19491CD1
:10278000C17700F8389CC5F800A00020D9E7000008
:1027900067697A50726F746F636F6C497373756594
:1027A0006450726F63657373204572726F72202C70
:1027B00020496C6C6567616C20506172616D0A0024
:1027C000870000202DE9F041060031D03089FFF765
:1027D00000FB8C4F30818C4C38784FF00208C0F3EE
:1027E0008001307A04F16B05C0F38002914241D040
:1027F00042074FF000014FEAC07020D550B194F865
:102800006A00415594F86A00401C84F86A007FA071
:10281000FFF78EF8307A80072CD594F86A100120E3
:10282000485594F86A00401C84F86A007FA01FE0B5
:1028300085A0FFF77DF84FF0FF30BDE8F08150B183
:1028400094F86A00415594F86A00401C84F86A00C4
:102850006EA0FFF76DF8307A80070BD594F86A10F8
:1028600001F8058094F86A00401C84F86A0082A090
:10287000FFF75EF83878317AC0F3C003C1F3C002C5
:1028800093421BD062F3C300387008070AD594F84E
:102890006A100320485594F86A00401C84F86A00C6
:1028A0007CA009E094F86A100420485594F86A0066
:1028B000401C84F86A007FA0FFF73AF83878317A34
:1028C000C0F30013C1F3001293421BD062F3041053
:1028D0003870C8060AD594F86A100520485594F84F
:1028E0006A00401C84F86A007AA009E094F86A1033
:1028F0000620485594F86A00401C84F86A007DA0C0
:10290000FFF716F83978307AC1F34013C0F340125C
:1029100093421BD062F34511397080060AD594F8B2
:102920006A100720485594F86A00401C84F86A0031
:1029300079A009E094F86A100820485594F86A00D4
:10294000401C84F86A007BA0FEF7F2FF7878717A69
:10295000C0F3C003C1F3C00293421BD062F3C300B3
:10296000787008070AD594F86A100B20485594F837
:102970006A00401C84F86A0076A009E094F86A10A6
:102980000C20485594F86A00401C84F86A0078A02E
:10299000FEF7CEFF7878727AC0F30013C2F300110D
:1029A0008B421BD061F304107870D0060AD594F8DE
:1029B0006A100920485594F86A00401C84F86A009F
:1029C00073A009E094F86A100A20485594F86A0048
:1029D000401C84F86A0075A0FEF7AAFF14F86A1F6D
:1029E0000D2048552078401C2070707A00F00701B7
:1029F00084F83C1074A0FEF79BFF04F86A8C00205A
:102A00001BE700000E000020300000204F6E426FD8
:102A1000617264696E673A20536F66744150206F2B
:102A20007220576562206D6F64650A004F6E426FB9
:102A3000617264696E673A204169724C696E6B20FD
:102A40006D6F64650A00000067697A50726F746F79
:102A5000636F6C4D6F64756C65537461747573202E
:102A60004572726F72202C20496C6C6567616C2016
:102A7000506172616D0A00004F6E426F617264694D
:102A80006E673A2053746174696F6E206D6F646570
:102A90000A00000057694669207374617475733ABF
:102AA00020696E2062696E64696E67206D6F64656F
:102AB0000A00000057694669207374617475733A9F
:102AC000206F75742062696E64696E67206D6F6433
:102AD000650A000057694669207374617475733A1A
:102AE00020636F6E6E656374656420726F757465C4
:102AF000720A000057694669207374617475733AED
:102B000020646973636F6E6E656374656420726FB1
:102B1000757465720A000000576946692073746114
:102B20007475733A20636F6E6E6563746564206DAF
:102B3000326D0A0057694669207374617475733A7F
:102B400020646973636F6E6E6563746564206D32B3
:102B50006D0A000057694669207374617475733A91
:102B60002061707020636F6E6E6563740A000000F0
:102B700057694669207374617475733A206E6F20CB
:102B800061707020636F6E6E6563740A00000000F0
:102B900057694669207374617475733A20696E20B1
:102BA00074657374206D6F64650A00005769466927
:102BB000207374617475733A206F75742074657333
:102BC00074206D6F64650A00525353492069732065
:102BD0002564200A0000000010B510B31449826873
:102BE000134C41F8272FC2684A60028A0A81807C10
:102BF000803C8872B4F8A7006B34FFF7EAF8A0872E
:102C0000606CFFF7EEF86064A27C04F113000E2103
:102C10001154A07C401CA074042004F86B0C00200C
:102C200010BD04A0FEF784FE4FF0FF3010BD000081
:102C3000B00000204552523A204E54502069732073
:102C4000656D707479200A0010B50D4C94F83A0047
:102C5000002813D00BA0FEF76BFEB4F8511004F15E
:102C60003B0000F085FDB4F85110814202D00DA068
:102C7000FEF75EFEFFF72AFAC4F8530010BD00000D
:102C8000300000205761726E696E673A2074696D7A
:102C9000656F75742C20726573656E642064617451
:102CA00061200A004552523A20726573656E6420B5
:102CB00064617461206572726F720A0010B503005E
:102CC0004FF0000003D011B10222491E05E00020A0
:102CD00010BD9C5C521C2044C0B28A42F9D310BD86
:102CE00070B50C46050016D01E210E48FDF765FA9A
:102CF0000C4822462946801CFDF746FA094D012062
:102D0000393DA5F8514085F83A003B35FFF7DEF92B
:102D1000A861002070BD04A0FEF70AFE4FF0FF304E
:102D200070BD0000690000204552523A2064617471
:102D30006120697320656D707479200A00000000BD
:102D400010B50A4958B109790079491C814204D16A
:102D500006481E21801EFDF730FA002010BD04A099
:102D6000FEF7E6FD4FF0FF3010BD00006B000020C5
:102D70004552523A206461746120697320656D7018
:102D80007479200A0000000070B50C464FF0FF3542
:102D900060B10A460146064800F0A2FCA04204D0F9
:102DA00004A000BFFEF7C4FD284670BD08A0F9E7E7
:102DB000240100204552523A204661696C65642026
:102DC000746F2072625772697465200A00000000F7
:102DD0004552523A2067697A507574446174612093
:102DE00062756620697320656D707479200A000031
:102DF000FEB516460C0005462CD06846FFF7B2FB20
:102E000005208DF80400194850F8313F8DF8053041
:102E10005B1C03608DF808500720FEF7DAFFADF861
:102E20000200324621460DF10900FDF7ADF90B21F4
:102E30006846FFF743FF8DF80A000B21684600F053
:102E400097FC04000CD5014609A0FEF771FD6FF058
:102E50000100FEBD0DA0FEF76BFD4FF0FF30FEBD83
:102E60000B216846FFF73CFF2046FEBD30000020E6
:102E70004552523A207561727420777269746520E8
:102E80006572726F72202564200A000067697A52A9
:102E900065706F727444617461204572726F722044
:102EA0002C20496C6C6567616C20506172616D0A01
:102EB0000000000070B50E46049D04464BB111465B
:102EC0003046FEF7EFFF06F0070128B1012808D0D1
:102ED00016E04FF0FF3070BD185D8D402843185547
:102EE0000EE0EAB2C1F10806F240FF20F0402840AF
:102EF0001D1988406E7816436E701A5D02431A558C
:102F0000002070BD2DE9F0438DB01546149F894611
:102F1000064600244FF0FF38DBB1D7B13A461946D8
:102F20006846FDF731F9012F05D939466846FEF7A5
:102F3000C8FF401C0DD029464846FEF7B3FF0200EB
:102F400068464FF0FF0309F0070106D0012A0BD0B5
:102F500017E040460DB0BDE8F083845DC5F1080080
:102F6000CC40C3401C400CE08219805D5478C1F114
:102F70000802AD1AC5F10805EB401C40C84094405A
:102F800004432046E6E7000002484168491C4160CE
:102F900070470000000000202DE9FF470C460600A6
:102FA0004FF0000505D024B14FF40057DFF89C80A6
:102FB00047E04FF0FF3004B0BDE8F087701940786B
:102FC00012283CD2DFE800F03B3B3B3B3B3B3B3B2A
:102FD0003B3B3B3B3B1D24312009DFF874902178BB
:102FE0001CA089F80010FEF7A3FC99F80000012846
:102FF00005D0002239464046FDF739FB1FE001228B
:10300000F8E7217819A018E01BA0FEF791FC16E064
:103010002079A2796179A3688DE80F00E378A2781E
:1030200021881AA0FEF784FC09E023A0FEF780FCAB
:1030300026A0FEF77DFC217828A0FEF779FC6D1C08
:10304000EDB23078A842B9D80020B4E700140140AE
:10305000000000204576743A204556454E545F5096
:103060004F574552202564200A000000525353490F
:103070002025640A000000005452414E5350415232
:10308000454E545F44415441200A00005749464987
:103090005F4E5450203A205B25642D25642D256415
:1030A00020253032643A253032643A253032645D6E
:1030B0005B25645D200A00004D4F44554C45204976
:1030C0004E464F202E2E2E0A000000005749462063
:1030D0004D4F44554C45202E2E2E0A006D6F6475C1
:1030E0006C6554797065203A205B25645D200A0088
:1030F0002DE9F0438FB04FF000065FEA0009ADF80C
:103100000460374602960ED0FEF7E6FF774C01AA20
:10311000611C04F1F400FFF775F904F1B30850B134
:10312000801C6FD095E072A0FEF702FC4FF0FF30DC
:103130000FB0BDE8F08378A0FEF7FAFB6079651C5C
:103140000F284CD00ADC0E2816D2DFE800F0151B41
:10315000151F1515443915154415443D182857D029
:1031600006DC112875D014284DD0162804D132E081
:10317000222855D02A282ED002212846FFF736F8DB
:103180006AA064E02846FFF781F862E0EA79A9794D
:103190006CA0FEF7CDFB02A8BDF80420009004F15E
:1031A000090103AB3846093AFFF792FA002850D1DB
:1031B000EB7903A92846029AFFF7FAF965A046E0E1
:1031C0002846FEF7C7FF44E02846FEF7C3FF28461F
:1031D000FFF7F8FA3DE02846FFF7B2FD39E0284650
:1031E000FEF7B8FF5EA0FEF7A3FBFEF76FFF0546F4
:1031F0004FF41677FEF76AFF401BB842FAD900F089
:10320000F9F926E02FE02846FFF79AFD59A01EE0C5
:103210002846FFF795FD2846FFF7DEFC5DA016E087
:103220002846FFF78DFD412205F108014046FCF7D5
:10323000ABFF2E4894F8902091300F21115494F850
:103240009000401C84F890000520207057A0FEF7E5
:103250006FFB264D2078573506282BD2DFE800F08B
:103260002A0D17222F3A601C0121FEF7BFFF56A03E
:10327000FEF75EFB6FF001005AE71C492670012241
:10328000A4312846FFF788FE1321284607E0174996
:103290000122A6312670A1F13C00044616E0FCF79D
:1032A0008CFF07E011492670D4F82D2017312846ED
:1032B000FFF772FE4846FEF781FE002038E70B4913
:1032C0002670A731A1F12A000C220446FFF764FE04
:1032D000132108E0054826709030412241460446FB
:1032E000FFF75AFE41212046D9E7000030000020B8
:1032F00047697A7769747348616E646C65204572BA
:10330000726F72202C20496C6C6567616C20506173
:1033100072616D0A00000000476574204F6E6520E1
:103320005061636B6574210A000000004552523AF7
:1033300020636D6420636F6465206572726F722113
:103340000A000000666C6167202578202578200A35
:103350000000000041636B44617461203A200A0060
:103360007265706F72743A4D4355207265626F6F6B
:1033700074210A0041636B2050524F445543544915
:103380004F4E5F4D4F4445207375636365737320E3
:103390000A00000041636B204745545F5554542098
:1033A00073756363657373200A00000041636B20CB
:1033B0004745545F4D6F64756C6520737563636535
:1033C0007373200A000000004552523A206368657A
:1033D000636B2073756D206572726F72210A000035
:1033E0000A4810B52C2101600949C16000F030F98C
:1033F00048B108A0FEF79CFA0448F421BDE810404B
:10340000F438FCF7DABE08A0F4E70000240100203D
:103410000010002072624372656174652046616924
:103420006C64200A0000000072624372656174657A
:103430002053756363657373200A0000F0B5064678
:103440000025364C092787B0062E60D2DFE806F04B
:10345000030D0D35555A6846FFF784F80B2030E010
:1034600001462FA0FEF764FA44E003A8FFF77AF8BC
:103470008DF8107054F8310F8DF81100401C206049
:103480008DF814600620FEF7A4FCADF80E000A21AA
:1034900003A8FFF713FC8DF815000A2103A800F01C
:1034A00067F9050003D501461DA0FEF741FA0A2180
:1034B0000DF10C00FFF714FC2CE06846FFF752F802
:1034C00013208DF8040054F8310F8DF80500401CCE
:1034D00020600520FEF77DFCADF80200092168465A
:1034E000FFF7ECFB8DF808000921684600F040F971
:1034F0000500B5D409216846DCE76846FFF732F8D5
:103500001520DEE76846FFF72DF82920D9E70BA044
:10351000FEF70EFA07B02846F0BD0000300000208C
:103520004552523A20756172742077726974652031
:103530006572726F72202564200A00004552523A6B
:10354000204366674D6F6465206572726F72210A51
:1035500000000000FDF79EF8FDF7CDFFFDF7D6FE59
:10356000FDF77AFFFDF794FFFDF754FF01225103A9
:103570001248FDF77CF8012291031148FDF777F816
:103580001048FDF72FFC01220F491048FDF71CFEE3
:1035900000F03CF9FFF724FF0DA0FEF7C9F94FF446
:1035A0007A74104910A0FEF7C3F92046FCF706FF15
:1035B00000F02AF90E48FFF79BFDF2E700140140E6
:1035C000002001403401002018000020B401002038
:1035D0004D435520496E6974205375636365737359
:1035E000200A0000183800080D0A25730D0A000093
:1035F00000000020704700B5010006D04A688868C6
:10360000824205D14FF0000000BD4FF0FF3000BDF9
:1036100002D2A0EB020000BD084600F013F84A6891
:103620008968511A401A00BD00B5010007D000F0AA
:1036300009F803460846FFF7DEFF181A00BD4FF0F1
:10364000FF3000BD08B1006870474FF0FF30704791
:1036500020B1C16841608160002070474FF0FF30A9
:1036600070472DE9F041040015460F464FF0FF303A
:1036700020D0002F1ED06068A1688842204609D261
:10368000FFF7B9FFA84203D82046FFF7B4FF05466D
:10369000616807E0FFF7D6FF6168E2688A1A801A5E
:1036A000A84209D92A463846FCF76EFD60682844CE
:1036B00060602846BDE8F0812046FFF7C3FF6168DF
:1036C000E2688A1A861A32463846FCF75DFDE068E1
:1036D0006060AA1BB9192046FFF7C3FF3044E9E731
:1036E0002DE9F04115460F46040008D03FB1FFF721
:1036F0009BFFA84206D86FF00100BDE8F0814FF0B3
:10370000FF30FAE76168A068814229D82046FFF7B8
:1037100099FF0146A068E268821A8E1AB54212D853
:103720002A463946FCF730FDA0682844A0602046B0
:10373000FFF788FF0146E068A2680144914200D18A
:10374000A0602846D9E732463946FCF71DFDE068FF
:10375000A060AA1BB9192046FFF7C2FF3044CCE78E
:103760002A463946FCF710FDA0682844E8E7000027
:10377000F8B506004FF055000D464FF000048DF8E7
:10378000000006D016482A46416816A0FEF7D0F879
:1037900007E04FF0FF30F8BD315D17A0FEF7C8F825
:1037A000641CAC42F8D316A0FEF7C2F800244FF612
:1037B000FF7711E031193B4601221248FDF746FD23
:1037C000022C08D3305DFF2805D13B460122694613
:1037D0000C48FDF73BFD641CAC42EBD32846F8BD1A
:1037E000000000204D435532576946695B2534641B
:1037F0003A2534645D3A20002530327820000000FC
:103800000A000000B40100207047000001480021B8
:1038100001707047000000206D61696E0066756E72
:103820004B45594331330066756E4B455945300061
:103830000000000000000000010203040607080960
:1038400000000000010203046838000800000020A6
:10385000300000005019000898380008300000209F
:10386000FC0F0000601900080000000000000000CC
:103870000000000000000000000000000000000048
:103880000000000001000000100000000000000027
:0838900000A24A040000000040
:0400000508000131BD
:00000001FF
