:020000040800F2
:100000005804002045010008C70F0008830E0008AF
:10001000C50F0008B10100088513000800000000AA
:10002000000000000000000000000000ED0F0008CC
:10003000B301000800000000EB0F0008EF0F0008FC
:100040005F0100085F0100085F0100085F01000810
:100050005F0100085F010008B50100085F010008AA
:100060005F0100085F0100085F0100085F010008F0
:100070005F0100085F0100085F0100085F010008E0
:100080005F0100085F0100085F0100085F010008D0
:100090005F0100085F0100085F0100085F010008C0
:1000A0005F0100085F0100085F0100085F010008B0
:1000B0005F0100085F0100085F0100085F010008A0
:1000C0005F0100085F0100085F0100085F01000890
:1000D0005F010008791300085F0100085F01000854
:1000E000BB0100085F0100085F0100085F01000814
:1000F0005F0100085F0100085F0100085F01000860
:100100005F0100085F0100085F0100085F0100084F
:100110005F0100085F0100085F0100085F0100083F
:100120005F0100085F0100085F0100085F0100082F
:10013000DFF80CD000F02AF800480047B51400089A
:10014000580400200648804706480047FEE7FEE7BF
:10015000FEE7FEE7FEE7FEE7FEE7FEE7FEE7FEE777
:100160003510000831010008D2B201E000F8012B7F
:10017000491EFBD270470022F6E710B513460A4627
:1001800004461946FFF7F0FF204610BD064C074D08
:1001900006E0E06840F0010394E807009847103457
:1001A000AC42F6D3FFF7C8FF201500084015000841
:1001B000FEE77047012000F0B1B84FF4005000F0A6
:1001C000ADB870472DE9F05F90F8211000240229A6
:1001D00003D004218163012485E001680A6822F0CC
:1001E0000E020A6001680A6822F001020A603F4EAE
:1001F0003E4FB215DFF8F4C0DFF8F090DFF8ECA066
:10020000DFF8E8B0DFF8E4E00168783F1301150299
:10021000ACF1640CA9F15009AAF13C0AABF1280B2E
:10022000AEF1140E4FF48018B14227D9B9420ED066
:10023000614512D049451DD0514518D0594518D0B7
:10024000714501D1424615E0294EB14201D101224A
:1002500010E0274E1436B14201D110220AE0244E9C
:100260002836B14206D0224A3C32914201D11A4688
:1002700000E02A461E49091F0A602BE0B94213D04C
:10028000614517D0494522D051451DD059451DD053
:10029000714501D142461AE0B14202D14FF080725D
:1002A00015E0134EB14201D1012210E0104E143678
:1002B000B14201D110220AE00D4E2836B14206D0DB
:1002C0000B4A3C32914201D11A4600E02A460749C6
:1002D00080394A60012180F82110002180F8201027
:1002E000416B01B188472046BDE8F09F8000024085
:1002F0000804024070B5044600F016F90546601C7B
:1003000002D004480078044400F00EF9401BA042DB
:10031000FAD370BD0000002070470000044910B5FA
:100320000A68024202D00860FFF7F6FF10BD000025
:10033000140401402DE9F84FDFF8B8A100220AF1BA
:10034000040B144601274FF00F090BF1040E00BFF8
:100350000B6807FA04F52B40AB4274D1DFF898C163
:100360004E68A6EB0C0866452BD00DDC032E34D06E
:1003700005DC36B3012E19D0022E2FD11BE0112E31
:1003800016D0122E2AD119E0B8F5881F19D006DC34
:10039000B8F5803F15D0B8F5801F1FD111E0B8F532
:1003A000001F0ED0B8F5041F18D10AE0CA6815E086
:1003B000CA68121D12E0CA6808320FE0CA680C321F
:1003C0000CE08A682AB1012A4FF0080203D0456187
:1003D00004E0042202E0056100E00022FF2B01D8C6
:1003E000064601E000F104064FEA840501D9A5F1B3
:1003F0002005D6F800C009FA05F82CEA080C02FA24
:1004000005F54CEA050CC6F800C04D68ED006AD54C
:100410003A4DAE6946F00106AE61AD6924F00306BF
:1004200005F001050095364D06EB050CDCF808508B
:10043000A6074FEA167809FA08F6B543314EB042DE
:1004400002D100261AE04EE02F4EB04201D1012623
:1004500014E02E4EB04201D102260FE02C4EB042E5
:1004600001D103260AE02B4EB04201D1042605E05B
:10047000294EB04201D1052600E0062606FA08F60C
:100480002E43CCF808604D68DAF80060ED0355465D
:1004900001D51E4300E09E432E604D68AD0305D597
:1004A000DBF800601E43CBF8006004E0DBF800508E
:1004B0009D43CBF800504D68DEF80060ED027546B4
:1004C00001D51E4300E09E432E604D68AD0205D568
:1004D000084D0C352E681E432E6004E0054E0C3688
:1004E00035689D433560641C102CFFF431AFBDE8C6
:1004F000F88F0000000401400000111000100240BD
:100500000000014000080140000C014000100140C3
:100510000014014000180140001C01400AB10161B3
:1005200070470904FBE7000001488068704700003D
:100530000000002002488168027811448160704701
:1005400000000020074810B5016841F0100101606B
:10055000032000F073F8002000F006F800F024F803
:10056000002010BD0020024070B50D4D04464FF430
:100570007A712878B1FBF0F00A490968B1FBF0F014
:1005800000F010FB48B9102C07D200222146501E63
:1005900000F034F800206C6070BD012070BD0000D8
:1005A000000000200C0000200C4808B5816941F0D3
:1005B00001018161816901F001010091C16941F08E
:1005C0008051C161C06900F08050009004484168CA
:1005D00021F0E06141F00071416008BD001002406F
:1005E0000000014000F01F020121914040098000FD
:1005F00000F1E020C0F8001170470000F0B40E4B8D
:100600001B680C46C3F30223C3F10705042D00D970
:100610000425191D072901D2002300E0DB1E012655
:1006200006FA05F1491E214099409E40761E16406B
:100630003143F0BC00F0C9BC0CED00E0064900F00D
:10064000070208684FF6FF03184040EA0220034AF9
:1006500010430860704700000CED00E00000FA0550
:10066000704700002DE9F047DFF8548105460E463B
:10067000D8F8000000F00700B0420CD2D8F8001003
:1006800021F007013143C8F80010D8F8000000F04D
:100690000700B0426FD128684A4C810712D5400745
:1006A00003D5606840F4E06060602878000703D5F7
:1006B000606840F4605060606068A96820F0F000F5
:1006C000084360602878C00744D06868012816D0C5
:1006D0002168022816D0890700294CDA616821F0C8
:1006E000030101436160FFF71FFF6968074641F29C
:1006F000883001290ED00229814618D026E02168D1
:100700008903E9E78901E7E7FFF70EFFC11B4945C8
:1007100001D918E081466068C0F381000128F3D157
:1007200018E000BFFFF700FFC11B49450BD8606808
:10073000C0F381000228F5D10CE000BFFFF7F4FE02
:10074000C11B494502D90320BDE8F087606810F05D
:100750000C0FF3D1D8F80010404601F00701B14268
:100760000BD9016821F0070131430160006800F0F6
:100770000700B04201D00120E6E72878400705D500
:100780006068E96820F4E06008436060287800074A
:1007900006D56068296920F4605040EAC1006060B5
:1007A00000F03CF86168084AC1F30311515CC8408D
:1007B000064908600020FFF7D7FE0020C4E70000CC
:1007C0000020024000100240051500080C00002027
:1007D00001490120C86470470000424204480549AD
:1007E00000684968044AC1F30221515CC84070475F
:1007F0000C000020001002401515000804480549AF
:1008000000684968044AC1F3C221515CC84070477E
:100810000C000020001002401515000812A185B040
:100820000FC98DE80F0014A0144A006804905168A5
:10083000134801F00C03042B10D0082B0ED1C1F388
:100840008343C9031DF803000AD5516804AAC1F304
:100850004041515C0A4A5043B0FBF1F005B070478B
:1008600008494843FAE7000002030405060708099F
:100870000A0B0C0D0E0F10100102000000100240B8
:1008800000127A0000093D0010B5044CA068000673
:1008900003D5FFF7E5FE8020A07210BD00100240D6
:1008A0002DE9F84F04460078B94DC00748D0686874
:1008B000C0F38100012807D06868C0F381000228D6
:1008C00009D16868C00306D52868800338D56068F8
:1008D00000286FD034E06068B0F5803F0BD010B1D5
:1008E000B0F5A02F11D0286820F480302860286847
:1008F00020F4802002E0286840F48030286060689E
:1009000088B1FFF711FE064609E0286840F4802010
:100910002860F0E7FFF708FE801B642875D8286878
:100920008003F7D50CE0FFF7FFFD064605E000BFAA
:10093000FFF7FAFD801B6428F0D828688003F7D4FD
:100940002078944E80074FF001094FF000083BD506
:10095000686810F00C0F07D06868C0F381000228A7
:1009600009D16868C00306D42868800714D52069B7
:1009700001281FD110E02069B0B1C6F80090FFF740
:10098000D3FD074605E000BFFFF7CEFDC01B0228E0
:10099000C4D828688007F7D52868616920F0F80076
:1009A00040EAC10028600FE0C6F80080FFF7BCFDF8
:1009B000074606E0E9E000BFFFF7B6FDC01B0228CE
:1009C00023D828688007F7D4207800072CD57248F0
:1009D000A169D9B1C0F80090FFF7A6FD074604E071
:1009E000FFF7A2FDC01B02280FD8686A8007F7D561
:1009F0006A484FF4FA510068B0FBF1F0009000BF74
:100A00000098411E0091FAD20EE080E0C0F800800C
:100A1000FFF78AFD074604E0FFF786FDC01B0228AA
:100A200075D8686A8007F7D42078400760D5E869F0
:100A30000027C00008D4E86940F08050E861E86908
:100A4000012700F08050009055480168C90513D473
:100A50000168834641F480710160FFF765FD8246BD
:100A600006E000BFFFF760FDA0EB0A0064284ED847
:100A7000DBF80000C005F5D5E06801280AD008B110
:100A8000052813D0286A20F001002862286A20F087
:100A9000040002E0286A40F001002862E06841F2A8
:100AA000883B98B1FFF740FD82460BE0286A40F092
:100AB00004002862EEE700BFFFF736FDA0EB0A0155
:100AC00059455AD8286A8007F6D50CE0FFF72CFD67
:100AD000824605E0FFF728FDA0EB0A0159454CD8F6
:100AE000286A8007F6D41FB1E86920F08050E861D9
:100AF000E06988B36968C1F38101022945D0022801
:100B0000C6F8608004D0FFF70FFD044638E034E0FB
:100B1000FFF70AFD074604E0FFF706FDC01B0228A9
:100B20002BD828688001F7D4206AB0F5803F05D122
:100B30006868A16820F4003008436860D4E90801BF
:100B40000843696821F4741108436860C6F860902E
:100B5000FFF7EAFC044606E015E000BFFFF7E4FCFF
:100B6000001B022809D828688001F7D50BE000BFD8
:100B7000FFF7DAFC001B022802D90320BDE8F88F3A
:100B800028688001F4D40020F8E70120F6E700008F
:100B90000010024000004242800442420C0000204B
:100BA0000070004010B5401EB0F1807F01D30120DD
:100BB00010BD4FF0E02460610F21601700F005FACE
:100BC0000020A06107202061002010BD70470000B8
:100BD00070B5026804461068D168536910F00F0FB1
:100BE00050D003F0010501F4907635435DD0C20783
:100BF00005D0CA0503D5E26B42F00102E263420769
:100C000005D5DA0703D0E26B42F00202E263820705
:100C100005D5DA0703D0E26B42F00402E263020773
:100C200005D5DA0703D0E26B42F00802E263E26B1B
:100C3000002A33D0800604D5880602D5204600F06D
:100C400033FA20684069E16BC0F38010090700D4D3
:100C500028B3204600F01AFA2068416949061AD5DF
:100C6000416921F040014161606BA0B11B494163C2
:100C7000606BFFF7A7FA002810D0606B416BBDE8EE
:100C800070400847830610D58B060ED52046BDE878
:100C9000704000F009BA2046FFF798FF70BD20466B
:100CA000FFF794FF0020E06370BD030606D50B0636
:100CB00004D52046BDE8704000F0FABA4006F3D5EE
:100CC0004806F1D5D168204621F04001D1602021AD
:100CD00084F8391000F0D4F870BD00007D100008D1
:100CE00070B5040004D094F83900002510B106E076
:100CF000012070BD84F83850204600F023F82420ED
:100D000084F839002068C16821F40051C160204690
:100D100000F016FA2068016921F490410161206811
:100D2000416921F02A0141612068C16841F4005104
:100D3000C160E563202084F8390084F83A0000207F
:100D400070BD000030B585B0002400940194029479
:100D500003940068184988422CD11848816941F4ED
:100D600080418161816901F480410491816941F090
:100D7000040181618069124D00F0040004904FF479
:100D800000700090022001900320039069462846DD
:100D9000FFF7D0FA2815CDE90004694628460294E9
:100DA000FFF7C8FA002211462520FFF727FC25206F
:100DB000FFF718FC05B030BD0038014000100240BC
:100DC0000008014070472DE9F843044690F83900C7
:100DD0001F4616460D46202850D1A5B19EB194F865
:100DE000380001284AD0012084F838004FF000086C
:100DF000C4F83C80212084F83900FFF795FBA684D5
:100E00008146E68426E00120BDE8F883E08C401EA0
:100E1000E084A0684B46B0F5805F4FF000024FF0D1
:100E200080012046009703D000F073FAE8B90DE086
:100E300000F06FFAC8B928882168C0F3080048603C
:100E4000206908B16D1C05E0AD1C03E0216815F8B0
:100E5000010B4860E08C0028D8D14B46002240218D
:100E60002046009700F055FA08B10320CCE7202077
:100E700084F8390084F838800020C5E70220C3E7F1
:100E80007047FEE72DE9F04786B000253948009508
:100E9000019502950395816941F010018161816995
:100EA00001F010010491816941F0200181618169A3
:100EB00001F020010491816941F00401816181699F
:100EC00001F004010491816941F4807181618169BB
:100ED00001F480710491816941F040018161806970
:100EE000DFF8949000F040004FF400560490002288
:100EF00031464846FFF712FBDFF880A04FF48048E8
:100F0000002241465046FFF709FB1D4F0124009681
:100F1000CDE9017469461B48FFF70CFACDE900647E
:100F20000226CDE9025669464846FFF703FA01AAB0
:100F3000CDF8008082E8700069465046FFF7FAF964
:100F4000CDE90047694610480294FFF7F3F9002203
:100F500011460620FFF752FB0620FFF743FB002255
:100F600011462820FFF74AFB2820FFF73BFB06B07D
:100F7000BDE8F0870010024000140140002001404D
:100F80000000211000100140001801400C4810B56D
:100F90000A4901604FF4E1314160002181600C2277
:100FA000C160C0E904128161C161FFF799FE0028A8
:100FB00003D0BDE81040FFF704B910BD0038014070
:100FC00014000020FEE7FFF75FBC0907090E0028A8
:100FD00006DA00F00F0000F1E02080F8141D7047E1
:100FE00000F1E02080F80014704770477047FFF769
:100FF000A1BA30B58FB028216846FFF7BCF814219C
:101000000AA8FFF7B8F801252804CDE9005000240C
:1010100007946846FFF744FC0F200A90CDE90B5473
:101020000D9400210AA80E94FFF71CFBFFF7D0FBDC
:101030000FB030BD0D48016841F001010160416809
:101040000B4A1140416001680A4A11400160016881
:1010500021F480210160416821F4FE0141604FF4D8
:101060001F0181600449C0030860704700100240FE
:101070000000FFF8FFFFF6FE08ED00E010B5406A43
:101080000021C185C184FFF7A1FD10BD0168CA68B8
:1010900022F49072CA6001684A6922F001024A6132
:1010A000202180F83A10704710B590F83A102229A4
:1010B00001D0022010BD8168B1F5805F11D00169B7
:1010C000002901681FD0496801F07F03816A4A1C2A
:1010D00082620B70C18D491E0904090CC18518D0AC
:1010E0002BE00269816A002A0268526805D0D2B2F8
:1010F0000A80816A491C8162ECE7C2F308020A8017
:10110000816A891CF7E74A68816A4B1C83620A700E
:10111000E0E70168CA6822F02002CA600168CA6874
:1011200022F48072CA6001684A6922F001024A61B1
:10113000202180F83A10FFF745FE002010BD000086
:101140002DE9F041044600680169E26821F440514C
:10115000114301612169A06808436169084321685E
:10116000CA6841F20C639A430243CA60206841692D
:10117000A26921F44071114341614C492068642502
:10118000322688423CD1FFF739FB00EBC00101EB6E
:10119000001061688900B0FBF1F7FFF72FFB00EB4F
:1011A000C00101EB00106168B0468900B0FBF1F0AE
:1011B000B0FBF5F06FF01801484307EB800106EB38
:1011C0000110B0FBF5F000F0F006FFF717FB00EBA5
:1011D000C00101EB001061688900B0FBF1F0B0FBC9
:1011E000F5F006EB0016FFF709FB00EBC00101EB81
:1011F000001061688900B0FBF1F7FFF7FFFA3BE0F0
:10120000FFF7ECFA00EBC00101EB00106168890008
:10121000B0FBF1F7FFF7E2FA00EBC00101EB0010C1
:101220006168B0468900B0FBF1F0B0FBF5F06FF0FB
:101230001801484307EB800106EB0110B0FBF5F005
:1012400000F0F006FFF7CAFA00EBC00101EB001056
:1012500061688900B0FBF1F0B0FBF5F006EB001619
:10126000FFF7BCFA00EBC00101EB001061688900D8
:10127000B0FBF1F7FFF7B2FA00EBC00101EB001091
:1012800061688900B0FBF1F0B0FBF5F06FF0180178
:10129000484307EB800108EB0110B0FBF5F0216833
:1012A00000F00F0030448860BDE8F0810038014054
:1012B00090F83910212901D0022070478168B1F5DA
:1012C000805F016A0BD04A1C026202680978516093
:1012D000C18C491E0904090CC1840ED017E009888D
:1012E0000268C1F30801516001690029016A02D056
:1012F000491C0162ECE7891CFBE70168CA6822F01F
:101300008002CA600068C16841F04001C1600020ED
:1013100070472DE9F041984617460E460446069D53
:101320001DE0681C1BD02DB1FFF7FEF8A0EB0800F4
:10133000A84214D92068C16821F4D071C160206826
:10134000416921F001014161202084F8390084F8CD
:101350003A00002084F838000320BDE8F0812068BE
:10136000006836EA000004D00020B842D9D000203E
:10137000F3E70120F9E700000148FFF729BC00006E
:1013800014000020FEE700000FB4054B10B503A9C0
:10139000044A029800F017F810BC5DF814FB000036
:1013A0009D1400081000002002E008C8121F08C1A8
:1013B000002AFAD170477047002001E001C1121FD6
:1013C000002AFBD170472DE9F84F9946924688468E
:1013D0000546002706E025280AD051464A46904790
:1013E0006D1C7F1C28780028F5D13846BDE8F88FA1
:1013F000002315F8011F18462E2915D115F8011FD5
:1014000004232A290DD06FF02F022978A1F130048E
:10141000092C09D800EB800002EB400008446D1C49
:10142000F3E758F8040B6D1C2A78002ADDD0632AF4
:1014300007D0732A0FD0104651464A4690477F1C6A
:101440002AE018F8042B8DF8002000218DF80110F7
:101450006E46012103E058F8046B4FF0FF315A0744
:101460004FF0000401D409E0641C84420BDA8C4282
:10147000FADB325D002AF7D105E0641C8C42FCDB0C
:10148000305D0028F9D1274404E016F8010B5146DD
:101490004A469047641EF8D26D1CA3E713B54FF679
:1014A000FF73012269460248FFF78DFC00981CBDBE
:1014B00014000020FFF746F8FFF79BFDFFF7E2FC62
:1014C000FFF764FD012251030848FFF727F80122C6
:1014D00091030748FFF722F84FF47A74054906A0F4
:1014E000FFF752FF2046FEF705FFF7E70014014023
:1014F00000200140001500080D0A25730D0A0000A8
:101500006D61696E00000000000000000001020330
:10151000040607080900000000010203040000009F
:10152000401500080000002014000000A813000867
:10153000541500081400002044040000B8130008EB
:1015400001000000100000000000000000A24A049A
:041550000000000097
:0400000508000131BD
:00000001FF
