:020000040800F2
:10000000D8040020450100082F1400086F120008D2
:100010002D14000853020008911800080000000089
:10002000000000000000000000000000551400085F
:10003000550200080000000053140008571400087F
:100040005F0100085F0100085F0100085F01000810
:100050005F0100085F010008570200085F01000807
:100060005F0100085F0100085F0100085F010008F0
:100070005F0100085F0100085F0100085F010008E0
:100080005F0100085F0100085F0100085F010008D0
:100090005F0100085F0100085F0100085F010008C0
:1000A0005F0100085F0100085F0100085F010008B0
:1000B0005F0100085F0100085F0100085F010008A0
:1000C0005F0100085F0100085F0100085F01000890
:1000D0005F01000879180008851800085F01000812
:1000E0005D0200085F0100085F0100085F01000871
:1000F0005F0100085F0100085F0100085F01000860
:100100005F0100085F0100085F0100085F0100084F
:100110005F0100085F010008E51400085F010008A6
:100120005F0100085F0100085F0100085F0100082F
:10013000DFF80CD000F06CF8004800479D1D000867
:10014000D80400200648804706480047FEE7FEE73F
:10015000FEE7FEE7FEE7FEE7FEE7FEE7FEE7FEE777
:100160009D14000831010008202A04DB203A21FAFE
:1001700002F00021704721FA02F3D040C2F12002C0
:100180009140084319467047D2B201E000F8012BB4
:10019000491EFBD270470022F6E710B513460A4607
:1001A00004461946FFF7F0FF204610BD2DE9F05F29
:1001B0000546002092469B468846064681464024D6
:1001C0001BE02846414647462246FFF7CDFF5346EF
:1001D0005A46C01A914110D311461846224600F0E3
:1001E00029F82D1A67EB01084F462246012000210D
:1001F00000F020F817EB00094E41201EA4F1010485
:10020000DFDC484631462A464346BDE8F09F000001
:10021000064C074D06E0E06840F0010394E8070053
:1002200098471034AC42F6D3FFF786FF4C1E000807
:100230006C1E0008202A04DB203A00FA02F100209C
:1002400070479140C2F1200320FA03F31943904014
:100250007047FEE77047012000F0EEB84FF4005001
:1002600000F0EAB8704700002DE9F05F90F8211027
:100270000024022903D004218163012485E0016860
:100280000A6822F00E020A6001680A6822F0010280
:100290000A603F4E3E4FB215DFF8F4C0DFF8F09031
:1002A000DFF8ECA0DFF8E8B0DFF8E4E00168783FC1
:1002B00013011502ACF1640CA9F15009AAF13C0A32
:1002C000ABF1280BAEF1140E4FF48018B14227D9D0
:1002D000B9420ED0614512D049451DD0514518D0C4
:1002E000594518D0714501D1424615E0294EB14219
:1002F00001D1012210E0274E1436B14201D1102263
:100300000AE0244E2836B14206D0224A3C329142BD
:1003100001D11A4600E02A461E49091F0A602BE057
:10032000B94213D0614517D0494522D051451DD05F
:1003300059451DD0714501D142461AE0B14202D162
:100340004FF0807215E0134EB14201D1012210E04E
:10035000104E1436B14201D110220AE00D4E28365B
:10036000B14206D00B4A3C32914201D11A4600E01C
:100370002A46074980394A60012180F8211000216E
:1003800080F82010416B01B188472046BDE8F09FFE
:10039000800002400804024070B5044600F05AF99B
:1003A0000546601C02D004480078044400F052F96D
:1003B000401BA042FAD370BD0000002070B5044677
:1003C000014614A001F066FA4FF40055AC420CD17E
:1003D0000220FFF7E1FF2946124800F02DF900281E
:1003E00017D1BDE8704001F0B3BC012C04D0BDE8CA
:1003F00070400DA001F04EBA0220FFF7CDFF0121A1
:100400000C4800F019F9002803D1BDE8704001F054
:10041000B3BC70BD4750494F5F50696E3D253038C1
:10042000780D0A000010014045525220434F4D2DD7
:100430002D00000000180140044910B50A6802426E
:1004400002D00860FFF7BAFF10BD0000140401409D
:100450002DE9F84FDFF8B8A100220AF1040B144689
:1004600001274FF00F090BF1040E00BF0B6807FACC
:1004700004F52B40AB4274D1DFF898C14E68A6EB6F
:100480000C0866452BD00DDC032E34D005DC36B3CA
:10049000012E19D0022E2FD11BE0112E16D0122EB4
:1004A0002AD119E0B8F5881F19D006DCB8F5803FCD
:1004B00015D0B8F5801F1FD111E0B8F5001F0ED080
:1004C000B8F5041F18D10AE0CA6815E0CA68121D01
:1004D00012E0CA6808320FE0CA680C320CE08A6881
:1004E0002AB1012A4FF0080203D0456104E004223A
:1004F00002E0056100E00022FF2B01D8064601E082
:1005000000F104064FEA840501D9A5F12005D6F8CB
:1005100000C009FA05F82CEA080C02FA05F54CEAC5
:10052000050CC6F800C04D68ED006AD53A4DAE69BD
:1005300046F00106AE61AD6924F0030605F0010541
:100540000095364D06EB050CDCF80850A6074FEA7F
:10055000167809FA08F6B543314EB04202D10026AA
:100560001AE04EE02F4EB04201D1012614E02E4E8B
:10057000B04201D102260FE02C4EB04201D1032639
:100580000AE02B4EB04201D1042605E0294EB042CC
:1005900001D1052600E0062606FA08F62E43CCF81F
:1005A00008604D68DAF80060ED03554601D51E433A
:1005B00000E09E432E604D68AD0305D5DBF800607A
:1005C0001E43CBF8006004E0DBF800509D43CBF8FD
:1005D00000504D68DEF80060ED02754601D51E43FF
:1005E00000E09E432E604D68AD0205D5084D0C35E8
:1005F0002E681E432E6004E0054E0C3635689D4380
:100600003560641C102CFFF431AFBDE8F88F00009A
:1006100000040140000011100010024000000140E1
:1006200000080140000C014000100140001401408E
:1006300000180140001C01408068084000D00120E3
:100640007047C2684A40C26070470AB10161704792
:100650000904FBE7014880687047000000000020A3
:1006600002488168027811448160704700000020D0
:10067000074810B5016841F010010160032000F047
:1006800073F8002000F006F800F024F8002010BDF8
:100690000020024070B50D4D04464FF47A71287861
:1006A000B1FBF0F00A490968B1FBF0F000F010FB73
:1006B00048B9102C07D200222146501E00F034F811
:1006C00000206C6070BD012070BD000000000020A3
:1006D0000C0000200C4808B5816941F001018161DE
:1006E000816901F001010091C16941F08051C1614E
:1006F000C06900F0805000900448416821F0E0613A
:1007000041F00071416008BD00100240000001404E
:1007100000F01F02012191404009800000F1E0201B
:10072000C0F8001170470000F0B40E4B1B680C4677
:10073000C3F30223C3F10705042D00D90425191DB5
:10074000072901D2002300E0DB1E012606FA05F18D
:10075000491E214099409E40761E16403143F0BC10
:1007600000F067BE0CED00E0064900F007020868E3
:100770004FF6FF03184040EA0220034A1043086086
:10078000704700000CED00E00000FA057047000023
:100790002DE9F047DFF8548105460E46D8F80000F1
:1007A00000F00700B0420CD2D8F8001021F0070189
:1007B0003143C8F80010D8F8000000F00700B0423C
:1007C0006FD128684A4C810712D5400703D560686D
:1007D00040F4E06060602878000703D5606840F46A
:1007E000605060606068A96820F0F00008436060B5
:1007F0002878C00744D06868012816D021680228EC
:1008000016D0890700294CDA616821F00301014301
:100810006160FFF71FFF6968074641F288300129D0
:100820000ED00229814618D026E021688903E9E725
:100830008901E7E7FFF70EFFC11B494501D918E021
:1008400081466068C0F381000128F3D118E000BF41
:10085000FFF700FFC11B49450BD86068C0F381005A
:100860000228F5D10CE000BFFFF7F4FEC11B49459B
:1008700002D90320BDE8F087606810F00C0FF3D1B7
:10088000D8F80010404601F00701B1420BD90168C9
:1008900021F0070131430160006800F00700B04219
:1008A00001D00120E6E72878400705D56068E968AF
:1008B00020F4E060084360602878000706D560688F
:1008C000296920F4605040EAC100606000F03CF803
:1008D0006168084AC1F30311515CC84006490860C9
:1008E0000020FFF7D7FE0020C4E7000000200240F0
:1008F00000100240341E00080C00002001490120B5
:10090000C8647047000042420448054900684968CD
:10091000044AC1F30221515CC84070470C0000201A
:1009200000100240441E0008044805490068496858
:10093000044AC1F3C221515CC84070470C0000203A
:1009400000100240441E000812A185B00FC98DE8B6
:100950000F0014A0144A006804905168134801F075
:100960000C03042B10D0082B0ED1C1F38343C90311
:100970001DF803000AD5516804AAC1F34041515C37
:100980000A4A5043B0FBF1F005B0704708494843AC
:10099000FAE7000002030405060708090A0B0C0D1C
:1009A0000E0F1010010200000010024000127A0029
:1009B00000093D0010B5044CA068000603D5FFF700
:1009C000E5FE8020A07210BD001002402DE9F84F16
:1009D00004460078B94DC00748D06868C0F381006C
:1009E000012807D06868C0F38100022809D168682F
:1009F000C00306D52868800338D5606800286FD00A
:100A000034E06068B0F5803F0BD010B1B0F5A02F96
:100A100011D0286820F480302860286820F48020D5
:100A200002E0286840F480302860606888B1FFF7F1
:100A300011FE064609E0286840F480202860F0E7AF
:100A4000FFF708FE801B642875D828688003F7D557
:100A50000CE0FFF7FFFD064605E000BFFFF7FAFDDB
:100A6000801B6428F0D828688003F7D42078944E3F
:100A700080074FF001094FF000083BD5686810F07F
:100A80000C0F07D06868C0F38100022809D168689C
:100A9000C00306D42868800714D5206901281FD117
:100AA00010E02069B0B1C6F80090FFF7D3FD07460B
:100AB00005E000BFFFF7CEFDC01B0228C4D82868A0
:100AC0008007F7D52868616920F0F80040EAC10086
:100AD00028600FE0C6F80080FFF7BCFD074606E07F
:100AE000E9E000BFFFF7B6FDC01B022823D8286845
:100AF0008007F7D4207800072CD57248A169D9B1B6
:100B0000C0F80090FFF7A6FD074604E0FFF7A2FD3E
:100B1000C01B02280FD8686A8007F7D56A484FF4CF
:100B2000FA510068B0FBF1F0009000BF0098411E40
:100B30000091FAD20EE080E0C0F80080FFF78AFD55
:100B4000074604E0FFF786FDC01B022875D8686AD7
:100B50008007F7D42078400760D5E8690027C000F7
:100B600008D4E86940F08050E861E869012700F0A6
:100B70008050009055480168C90513D40168834628
:100B800041F480710160FFF765FD824606E000BF19
:100B9000FFF760FDA0EB0A0064284ED8DBF80000E8
:100BA000C005F5D5E06801280AD008B1052813D0A2
:100BB000286A20F001002862286A20F0040002E080
:100BC000286A40F001002862E06841F2883B98B151
:100BD000FFF740FD82460BE0286A40F004002862DF
:100BE000EEE700BFFFF736FDA0EB0A0159455AD8E2
:100BF000286A8007F6D50CE0FFF72CFD824605E059
:100C0000FFF728FDA0EB0A0159454CD8286A800758
:100C1000F6D41FB1E86920F08050E861E06988B33C
:100C20006968C1F38101022945D00228C6F86080B5
:100C300004D0FFF70FFD044638E034E0FFF70AFD6B
:100C4000074604E0FFF706FDC01B02282BD82868E2
:100C50008001F7D4206AB0F5803F05D16868A168AB
:100C600020F4003008436860D4E90801084369684B
:100C700021F4741108436860C6F86090FFF7EAFC3D
:100C8000044606E015E000BFFFF7E4FC001B022865
:100C900009D828688001F7D50BE000BFFFF7DAFC20
:100CA000001B022802D90320BDE8F88F28688001C4
:100CB000F4D40020F8E70120F6E70000001002401D
:100CC00000004242800442420C00002000700040BC
:100CD00010B5401EB0F1807F01D3012010BD4FF050
:100CE000E02460610F21601700F0A3FB0020A061E9
:100CF00007202061002010BD7047704730B590F884
:100D00003C20012A20D0012280F83C20022380F8D8
:100D10003D3003685C6824F070045C6003685C68C4
:100D20000D682C435C6003689C6824F080049C6020
:100D300003689C6849680C439C6080F83D20002152
:100D400080F83C10084630BD022030BD10B50400CC
:100D500003D094F83D0010B107E0012010BD002041
:100D600084F83C00204600F00DF8022084F83D0095
:100D7000211D206800F0BCFB012084F83D0000200C
:100D800010BD000008B500680B49884212D10B481D
:100D9000C16941F01001C161C069012200F0100079
:100DA000009011463620FFF7BFFCBDE80840362012
:100DB000FFF7AEBC08BD000000100040001002406C
:100DC0000168CA6842F00102CA600068016841F027
:100DD0000101016000207047704770B5044600684B
:100DE00001694FF00005C943890715D4C168C9439B
:100DF000890711D4E91E01610120207720688069EC
:100E00008007204602D0FFF7E7FF04E000F098F8E3
:100E1000204600F096F8257720680169C943490704
:100E200017D4C168C943490713D46FF004010161A5
:100E3000022020772068806910F4407F204602D08D
:100E4000FFF7CAFF04E000F07BF8204600F079F8D5
:100E5000257720680169C943090716D4C168C943C9
:100E6000090712D46FF0080101610420207720687F
:100E7000C0698007204602D0FFF7AEFF04E000F013
:100E80005FF8204600F05DF8257720680169C943C6
:100E9000C90617D4C168C943C90613D46FF010013D
:100EA0000161082020772068C06910F4407F204647
:100EB00002D0FFF791FF04E000F042F8204600F076
:100EC00040F8257720680169C943C90708D1C1687E
:100ED000C943C90704D1891E0161204600F032F8D8
:100EE00020680169C943090609D4C168C9430906D4
:100EF00005D46FF0800101612046FFF7FDFE2068F8
:100F00000169C943490609D4C168C943490605D4E2
:100F10006FF040010161204600F022F8206801696D
:100F2000C94389060BD4C168C943890607D46FF049
:100F3000200101612046BDE87040FFF7DEBE70BDB4
:100F4000704770470449884204D14FF40051034868
:100F5000FFF777BB70470000140000200014014029
:100F60007047704770B5026804461068D1685369CD
:100F700010F00F0F50D003F0010501F490763543C7
:100F80005DD0C20705D0CA0503D5E26B42F001026D
:100F9000E263420705D5DA0703D0E26B42F00202B2
:100FA000E263820705D5DA0703D0E26B42F0040260
:100FB000E263020705D5DA0703D0E26B42F00802CC
:100FC000E263E26B002A33D0800604D5880602D59E
:100FD000204600F0E9FA20684069E16BC0F3801018
:100FE000090700D428B3204600F0D0FA20684169F0
:100FF00049061AD5416921F040014161606BA0B1F9
:101000001B494163606BFFF72FF9002810D0606B1C
:10101000416BBDE870400847830610D58B060ED59E
:101020002046BDE8704000F0BFBA2046FFF799FFA8
:1010300070BD2046FFF795FF0020E06370BD0306FA
:1010400006D50B0604D52046BDE8704000F0B0BBC5
:101050004006F3D54806F1D5D168204621F040017D
:10106000D160202184F8391000F000F970BD000033
:101070007D15000870B5040004D094F839000025EF
:1010800010B106E0012070BD84F83850204600F011
:1010900023F8242084F839002068C16821F4005125
:1010A000C160204600F0CCFA2068016921F490412B
:1010B00001612068416921F02A0141612068C1680D
:1010C00041F40051C160E563202084F8390084F8C0
:1010D0003A00002070BD000070B586B00024009476
:1010E0000194029403942E4E03682E490220032299
:1010F0002D4DB34226D18B6943F480438B618B69BC
:1011000003F4804304938B6943F004038B61896982
:10111000039201F0040104910102CDE90010694637
:101120002846FFF795F92815CDE9000469462846B9
:101130000294FFF78DF9002211462520FFF7F4FAFB
:10114000252028E0194EB34227D1CB6943F4003360
:10115000CB61CB6903F4003304938B6943F0040340
:101160008B618969039201F0040104910421CDE9A6
:10117000001069462846FFF76BF90820CDE9000406
:10118000694628460294FFF763F90022114626209B
:10119000FFF7CAFA2620FFF7BBFA06B070BD0000C1
:1011A00000380140001002400008014000440040A7
:1011B00070472DE9F843044690F839001F4616465B
:1011C0000D46202850D1A5B19EB194F838000128D1
:1011D0004AD0012084F838004FF00008C4F83C8061
:1011E000212084F83900FFF735FAA6848146E68489
:1011F00026E00120BDE8F883E08C401EE084A06872
:101200004B46B0F5805F4FF000024FF08001204662
:10121000009703D000F0FDFAE8B90DE000F0F9FA0C
:10122000C8B928882168C0F308004860206908B15F
:101230006D1C05E0AD1C03E0216815F8010B48604A
:10124000E08C0028D8D14B46002240212046009750
:1012500000F0DFFA08B10320CCE7202084F8390041
:1012600084F838800020C5E70220C3E77047FEE716
:101270002DE9F04786B00025394800950195029583
:101280000395816941F010018161816901F01001CC
:101290000491816941F004018161816901F00401D7
:1012A0000491816941F020018161816901F020018F
:1012B0000491816941F480718161816901F48071D7
:1012C0000491816941F0400181618069DFF8949067
:1012D00000F040004FF4005604900022314648468A
:1012E000FFF7B3F9DFF880A04FF4804800224146B1
:1012F0005046FFF7AAF91D4F01240096CDE901746D
:1013000069461B48FFF7A4F8CDE900640226CDE941
:10131000025669464846FFF79BF801AACDF80080BF
:1013200082E8700069465046FFF792F8CDE9004721
:10133000694610480294FFF78BF8012211460620F7
:10134000FFF7F2F90620FFF7E3F900220121282038
:10135000FFF7EAF92820FFF7DBF906B0BDE8F087D0
:101360000010024000140140002001400000211044
:1013700000100140001801401CB500240E480094E4
:101380000C490194016041F61F41C0E90114632139
:101390008461C160FFF7DAFC08B1FEF763FF0094D7
:1013A000694605480194FFF7A9FC002801D0FEF723
:1013B00059FF1CBD00100040140000200C4810B55F
:1013C0000A4901604FF4E1314160002181600C2243
:1013D000C160C0E904128161C161FFF74BFE0028C2
:1013E00003D0BDE81040FEF73DBF10BD00380140FE
:1013F000540000200C4810B50A4901604FF4E13157
:101400004160002181600C22C160C0E90412816149
:10141000C161FFF72FFE002803D0BDE81040FEF7A2
:1014200021BF10BD0044004094000020FEE7FFF7FC
:10143000C1BA0907090E002806DA00F00F0000F112
:10144000E02080F8141D704700F1E02080F80014BF
:10145000704770477047FFF703B930B58FB0282148
:101460006846FEF798FE14210AA8FEF794FE0125AF
:101470002804CDE90050002407946846FFF7A6FA37
:101480000F200A90CDE90B540D9400210AA80E9468
:10149000FFF77EF9FFF732FA0FB030BD0D48016853
:1014A00041F00101016041680B4A1140416001684F
:1014B0000A4A11400160016821F4802101604168FD
:1014C00021F4FE0141604FF41F0181600449C00313
:1014D00008607047001002400000FFF8FFFFF6FEB2
:1014E00008ED00E00148FFF778BC00001400002080
:1014F000F0B502681C4B1D4D1D4E1E4F1E4C4FF08B
:10150000804C984209D0A04207D0604505D0A8423F
:1015100003D0B04201D0B84204D122F0700E4A6824
:1015200042EA0E02984209D0A04207D0604505D099
:10153000A84203D0B04201D0B84203D122F4407592
:10154000CA682A4322F080054A692A4302608A68F1
:10155000C2620A688262984201D0A04201D1096940
:10156000016301214161F0BD002C014000040040F5
:1015700000080040000C00400034014010B5406AF3
:101580000021C185C184FFF7ECFC10BD0168CA6869
:1015900022F49072CA6001684A6922F001024A612D
:1015A000202180F83A10704710B590F83A1022299F
:1015B00001D0022010BD8168B1F5805F11D00169B2
:1015C000002901681FD0496801F07F03816A4A1C25
:1015D00082620B70C18D491E0904090CC18518D0A7
:1015E0002BE00269816A002A0268526805D0D2B2F3
:1015F0000A80816A491C8162ECE7C2F308020A8012
:10160000816A891CF7E74A68816A4B1C83620A7009
:10161000E0E70168CA6822F02002CA600168CA686F
:1016200022F48072CA6001684A6922F001024A61AC
:10163000202180F83A10FFF7BBFD002010BD00000C
:101640002DE9F041044600680169E26821F4405147
:10165000114301612169A068084361690843216859
:10166000CA6841F20C639A430243CA602068416928
:10167000A26921F44071114341614C4920686425FD
:10168000322688423CD1FFF74FF900EBC00101EB55
:10169000001061688900B0FBF1F7FFF745F900EB36
:1016A000C00101EB00106168B0468900B0FBF1F0A9
:1016B000B0FBF5F06FF01801484307EB800106EB33
:1016C0000110B0FBF5F000F0F006FFF72DF900EB8C
:1016D000C00101EB001061688900B0FBF1F0B0FBC4
:1016E000F5F006EB0016FFF71FF900EBC00101EB68
:1016F000001061688900B0FBF1F7FFF715F93BE0D6
:10170000FFF702F900EBC00101EB001061688900EE
:10171000B0FBF1F7FFF7F8F800EBC00101EB0010A8
:101720006168B0468900B0FBF1F0B0FBF5F06FF0F6
:101730001801484307EB800106EB0110B0FBF5F000
:1017400000F0F006FFF7E0F800EBC00101EB00103D
:1017500061688900B0FBF1F0B0FBF5F006EB001614
:10176000FFF7D2F800EBC00101EB001061688900BF
:10177000B0FBF1F7FFF7C8F800EBC00101EB001078
:1017800061688900B0FBF1F0B0FBF5F06FF0180173
:10179000484307EB800108EB0110B0FBF5F021682E
:1017A00000F00F0030448860BDE8F081003801404F
:1017B00090F83910212901D0022070478168B1F5D5
:1017C000805F016A0BD04A1C02620268097851608E
:1017D000C18C491E0904090CC1840ED017E0098888
:1017E0000268C1F30801516001690029016A02D051
:1017F000491C0162ECE7891CFBE70168CA6822F01A
:101800008002CA600068C16841F04001C1600020E8
:1018100070472DE9F041984617460E460446069D4E
:101820001DE0681C1BD02DB1FEF714FFA0EB0800D3
:10183000A84214D92068C16821F4D071C160206821
:10184000416921F001014161202084F8390084F8C8
:101850003A00002084F838000320BDE8F0812068B9
:10186000006836EA000004D00020B842D9D0002039
:10187000F3E70120F9E700000148FFF773BB000020
:10188000540000200148FFF76DBB000094000020C9
:10189000FEE700000FB4054B10B503A9044A0298F7
:1018A00000F018F810BC5DF814FB0000391D0008AA
:1018B0001000002002E008C8121F08C1002AFAD157
:1018C00070477047002001E001C1121F002AFBD1C0
:1018D000704700002DE9FF4F8DB00F4605460026EA
:1018E00006E025280BD0DDE90F1290476D1C761C11
:1018F00028780028F5D111B03046BDE8F08F0024DB
:10190000A246A1460122EC4900E0044315F8013F3C
:10191000203B02FA03F00842F7D128782A2810D099
:101920006FF02F022878A0F13001092914D80AEBB2
:101930008A0102EB410144F0020400EB010A6D1C34
:10194000F0E701CF5FEA000A03D544F40054CAF17E
:10195000000A44F002046D1C28782E2817D115F8CF
:10196000010F44F004042A280ED06FF02F022878CB
:10197000A0F1300109290AD809EB890102EB4101E4
:1019800000EB01096D1CF2E757F8049B6D1C2878E9
:101990006C280FD006DC4C2817D068280DD06A2898
:1019A00014D104E0742810D07A280FD10DE044F44B
:1019B00000140AE044F4801401E044F4401469780F
:1019C000814202D104F580146D1C6D1C2A786E2AA8
:1019D0001FD00CDC632A31D004DC002A8BD0582ABB
:1019E00011D1A3E0642A68D0692A0CD165E0732A7A
:1019F0002ED004DC6F2A73D0702A04D19BE0752AA4
:101A00006FD0782A6ED01046DDE90F129047761C11
:101A100050E1C4F30250022806D0032809D004285C
:101A200001CF09D0066045E101CFF117C0E900619F
:101A300040E101CF06803DE106703BE117F8040B61
:101A40008DF8000000208DF80100EB46012003E036
:101A500057F804BB4FF0FF3061074FF0000102D48C
:101A60000DE008F10101884649450FDA8045F8DBB1
:101A70001BF808100029F4D108E008F1010188469C
:101A80008142FADB1BF808100029F6D1DDE90F23AB
:101A9000AAEB08008146214600F036F9304400EBFD
:101AA000080604E0DDE90F121BF8010B9047B8F1BE
:101AB0000108F7D221464846F7E00A21C4F3025351
:101AC0004FF0000B0891022B04D001CFC117032B5C
:101AD00009D00AE0FF1D27F00707F7E8020108E038
:101AE00032E01FE020E000B2C117042B01D140B268
:101AF000C117031E71F1000307DA4FF0000CD0EBA1
:101B00000C006CEB01012D2302E0230504D52B23EF
:101B10008DF82430012303E0E30701D02023F7E709
:101B2000984658E00A2110E010210EE010204FF0F6
:101B3000000B08900CE010214FF0000B44F004045F
:101B40004FF00809089103E008214FF0000B0891BD
:101B5000C4F30253022B04D001CF0021032B06D083
:101B600006E0FF1D27F00707F7E8020103E080B257
:101B7000042B00D1C0B24FF0000823072BD5702AE8
:101B800007D0DDF820C08CF0100C5CEA0B0C05D0FF
:101B90000EE040238DF82430012308E050EA0103D1
:101BA00006D030238DF824308DF825200223984666
:101BB000DDF820C08CF0080C5CEA0B0C0BD150EA6D
:101BC000010301D1630706D530238DF824304FF08F
:101BD0000108A9F10109582A04D038A20B9208AAD9
:101BE0000A920BE03AA2F9E75B46089AFEF7DEFAA2
:101BF0000B9B9B5C0A9A521E0A92137050EA0102D8
:101C0000F2D10A98ADEB000000F1200B600702D57D
:101C100024F4803401E04FF00109D94502DDA9EB3D
:101C20000B0000E0002000EB0B0141440890AAEB00
:101C3000010AE00306D4DDE90F232146504600F0F7
:101C400063F806444FF0000908E009A911F80900FB
:101C5000DDE90F12904709F10109761CC145F4DB5B
:101C6000E0030CD5DDE90F232146504600F04CF887
:101C7000064404E0DDE90F1230209047761C0899F5
:101C8000481E08900029F5DC08E00A980A990078B7
:101C9000491C0A91DDE90F129047761CBBF1000147
:101CA000ABF1010BF1DC21465046DDE90F2300F0DA
:101CB00019F806446D1C1BE6092801003031323347
:101CC0003435363738396162636465660000000078
:101CD0003031323334353637383941424344454662
:101CE000000000002DE9F041044600251E4617467D
:101CF000880404D405E039462020B0476D1C641EDA
:101D0000F9D52846BDE8F0812DE9F04104460025CB
:101D10001E469046C80301D5302700E020278804DE
:101D200004D505E041463846B0476D1C641EF9D520
:101D30002846BDE8F081000013B54FF6FF7301227D
:101D400069460248FFF735FA00981CBD5400002090
:101D500010B5054905A0FFF79DFDBDE810404FF403
:101D600000510448FEF76DBC211E00080D0A2573C2
:101D70000D0A00000014014010B505490548FFF7A1
:101D800089FDBDE810404FF480410348FEF759BC7F
:101D90002B1E00086C1D000800200140FEF768FCA7
:101DA000FFF75BFBFFF764FAFFF708FBFFF722FB87
:101DB000FFF7E2FA012251030E48FEF746FC01222A
:101DC00091030D48FEF741FC0C48FEF7F9FF4FF474
:101DD0007A744FF6FF750A490AA0FFF75BFD2046AB
:101DE000FEF7DAFA2B460A2208A10B48FFF7E1F9C1
:101DF000F1E7000000140140002001401400002021
:101E00001C1E00080D0A25730D0A0000492D414DC6
:101E10002D55320D0A000000940000206D61696E9E
:101E20000066756E4B45594331330066756E4B4500
:101E300059453000000000000000000001020304CA
:101E40000607080900000000010203046C1E0008D8
:101E50000000002014000000B4180008801E0008D4
:101E600014000020C4040000C41800080100000091
:101E7000100000000000000000A24A040000000062
:0400000508000131BD
:00000001FF
